:020000040800F2
:100000002823002049010008D5230008D723000831
:10001000DB230008DF230008E323000800000000C2
:10002000000000000000000000000000E7230008BE
:10003000E923000800000000EB230008ED2300087E
:100040006301000863010008630100086301000800
:1000500063010008630100086301000863010008F0
:1000600063010008630100086301000863010008E0
:1000700063010008630100086301000863010008D0
:1000800063010008630100086301000863010008C0
:1000900063010008630100086301000863010008B0
:1000A000630100086187000863010008AB8600084F
:1000B000F7840008630100082B370008630100087B
:1000C0006301000863010008630100086301000880
:1000D000630100086142000863010008F96B000831
:1000E0006301000863010008630100086301000860
:1000F0003F3700086301000863010008630100083E
:100100006301000863010008FD570008630100084F
:1001100049430008E57C000863010008630100080A
:10012000630100086301000863010008630100081F
:10013000DFF810D00DF050FB00480047B92200084E
:10014000AFF3008028230020064880470648004778
:10015000FEE7FEE7FEE7FEE7FEE7FEE7FEE7FEE777
:10016000FEE7FEE74B020008310100080CB5002055
:10017000019000906C48006840F480306A49086043
:1001800000BF6948006800F4003000900198401CEE
:100190000190009818B90198B0F5A06FF1D16248AC
:1001A000006800F4003010B10120009001E0002050
:1001B00000900098012843D15C48006840F010008E
:1001C0005A4908600846006820F0030008600846A5
:1001D000006840F002000860534840685249486097
:1001E0000846406848600846406840F480604860BF
:1001F0000846406820F47C1048600846406840F497
:10020000E81048600846006840F08070086000BF51
:100210004548006800F000700028F9D04248406866
:1002200020F00300404948600846406840F0020062
:10023000486000BF3C48406800F00C000828F9D135
:100240000CBD10B5FFF792FF10BD10B53648006821
:1002500040F00100344908600846406834490840CD
:100260003149486008460068324908402E49086014
:100270000846006820F4802008600846406820F4A2
:10028000FE0048604FF41F008860FFF7DAFF4FF070
:1002900000602949086010BD10B50021002000222F
:1002A000214B5B6803F00C0121B1042906D0082919
:1002B00028D107E0214B224C236027E01F4B204C24
:1002C000236023E0184B5B6803F47010164B5B68E7
:1002D00003F48032022303EB904022B9194B4343CD
:1002E000174C23600DE0104B5B6803F4003323B11F
:1002F000144B4343124C236003E0104B4343104C18
:10030000236003E00D4B0E4C236000BF00BF064B83
:100310005B68C3F303130C4CE15C094B1B68CB40D7
:10032000074C236010BD0000001002400020024076
:100330000000FFF8FFFFF6FE08ED00E000127A0073
:100340000000002000093D00040000203149014365
:10035000314A1160704770B5002100230F22C47824
:1003600004B32D4C246804F4E064C4F5E064210A6D
:10037000C1F10403CA40447804FA03F184781440BC
:1003800021430901254C0678A155047804F01F0586
:100390000124AC4005786D11AD0005F1E025C5F8EC
:1003A000004109E0047804F01F050124AC401C4D15
:1003B0000678761145F8264070BD1A4A0A40024375
:1003C000154B1B1F1A60704739B1134A121D126872
:1003D0000243114B1B1D1A6006E00F4A121D1268E2
:1003E00082430D4B1B1D1A607047042808D14FF043
:1003F000E021096941F004014FF0E022116107E0BA
:100400004FF0E021096921F004014FF0E022116171
:10041000704700000000FA050CED00E000E400E089
:1004200080E100E080FFFF1F10B50446FA488442D7
:1004300008D10121401500F0E3FD0021601500F016
:10044000DFFD17E0F548844208D10121001500F0D6
:10045000D7FD0021201500F0D3FD0BE0F0488442C9
:1004600008D10121C80300F0CBFD00214FF400406A
:1004700000F0C6FD10BD30B50246002000235068D4
:10048000E84C20400D790C6844EA05242043506074
:100490009068E54C2040D1E902542C434D7944EA60
:1004A000450420439060D06A20F470000C7C641EE8
:1004B000E4B2234340EA0350D06230BD0021016022
:1004C000017141718160C16001210174704721B1E6
:1004D000826842F00102826003E0826822F0010239
:1004E0008260704721B1826842F48072826003E0CA
:1004F000826822F480728260704710B50023CBB20C
:100500001AB144681C43446002E044689C43446060
:1005100010BD816841F008018160704701460020EC
:100520008A6802F008020AB1012000E0002070474A
:10053000816841F0040181607047014600208A68AB
:1005400002F004020AB1012000E00020704721B14E
:10055000826842F4A002826003E0826822F4A00272
:1005600082607047014600208A6802F480020AB166
:10057000012000E00020704710B50A46002100234A
:10058000416821F46041531E41EA4331416010BD8E
:1005900021B1426842F40062426003E0426822F402
:1005A000006242607047F0B504460D46002000210D
:1005B000092D11DDE068A5F10A0606EB46070726BE
:1005C00006FA07F18843A5F10A0606EB460603FA88
:1005D00006F10843E0600CE0206905EB45070726BB
:1005E00006FA07F1884305EB450603FA06F10843CE
:1005F0002061072A0FDA606B561E06EB86071F265E
:1006000006FA07F18843561E06EB860605FA06F140
:100610000843606322E00D2A0FDA206BD61F06EB39
:1006200086071F2606FA07F18843D61F06EB8606C3
:1006300005FA06F10843206310E0E06AA2F10D0616
:1006400006EB86071F2606FA07F18843A2F10D067E
:1006500006EB860605FA06F10843E062F0BD21B11B
:10066000826842F48012826003E0826822F4801281
:10067000826070470146C86C80B2704766484C3053
:100680000068704721B1426842F48062426003E032
:10069000426822F480624260704721B1426842F4AD
:1006A0008052426003E0426822F480524260704708
:1006B0000A460021816821F4E041114381607047BE
:1006C00021B1826842F40042826003E0826822F431
:1006D00000428260704721B1826842F40212826057
:1006E00003E0826822F40212826070470146002013
:1006F0008A6802F400120AB1012000E0002070476D
:10070000F0B504461546002000220026092911DD17
:10071000E068A1F10A0707EB470C072707FA0CF27C
:100720009043A1F10A0707EB470703FA07F21043CA
:10073000E0600CE0206901EB410C072707FA0CF29E
:10074000904301EB410703FA07F210432061A06BCD
:10075000C0F30156EF1C06F1010CA7EB0C0707EBE9
:10076000870C1F2707FA0CF29043EF1C06F1010CCF
:10077000A7EB0C0707EB870701FA07F21043A0630A
:10078000F0BD10B50A4600210023816B21F4401111
:10079000531E41EA0351816310BD08B50023009345
:1007A0000090009B0B440093009B1A6008BD08B5A5
:1007B000024600200090009201F12800009B18449E
:1007C00000900098006880B208BD0A460021416888
:1007D000164B194011434160704741628262704775
:1007E0000A460021416821F01F0111434160704712
:1007F00040B109490831096841F40001064A08324C
:10080000116007E004490831096821F40001024A37
:1008100008321160704700000024014000280140A8
:10082000003C0140FFFEF0FFFDF7F1FFFFFD3FFF41
:100830000246002013680B400BB1012000E00020AD
:100840007047CA430260704770B50246002000231B
:1008500000240B125568CEB205EA060415681D4047
:1008600015B10CB1012000E0002070BD00220A1279
:10087000D343036070470000002044490860091D0D
:100880000860091D0860091D086041483F4914318E
:100890000860704700213D498279002A3AD00A4613
:1008A000126803689A430B461A600A1D12680368AF
:1008B0009A430B1D1A60027911440A6803681A43AF
:1008C0000A60324A0832126803689A432F4B083391
:1008D0001A601A1D126803689A432C4B0C331A6075
:1008E0004279102A0ED11A1F126803681A43274B47
:1008F00008331A601A1D126803681A43234B0C331D
:100900001A600DE02149427911440A6803681A43CC
:100910000A6005E0027911440A6803689A430A6094
:1009200070470021016001710C214171002181712A
:1009300070471649103109680143144A103211609A
:10094000704701460020114A143212680A400AB169
:10095000012000E0002070470C4914310860704706
:10096000014600200022094B1B6803EA0102074BE5
:1009700014331B680B4013B10AB1012000E00020C2
:1009800070470249143108607047000000040140BC
:10099000FFFF0F0010B50446CC48844208D1012166
:1009A000042000F02DFB0021042000F029FB46E08C
:1009B000C748844208D10121082000F021FB002112
:1009C000082000F01DFB3AE0C248844208D1012112
:1009D000102000F015FB0021102000F011FB2EE08C
:1009E000BD48844208D10121202000F009FB0021EC
:1009F000202000F005FB22E0B848844208D1012104
:100A0000402000F0FDFA0021402000F0F9FA16E045
:100A1000B348844208D10121802000F0F1FA00217E
:100A2000802000F0EDFA0AE0AE48844207D10121AF
:100A3000801500F0E5FA0021A01500F0E1FA10BDE4
:100A400010B50121084600F0DBFA0021012000F07A
:100A5000D7FA10BD2DE9F0410246002500260020FE
:100A600000230024002791F803C00CF00F0591F833
:100A700003C00CF0100CBCF1000F03D091F802C0C1
:100A80004CEA050591F800C0BCF1000F31D01468A4
:100A900000202BE04FF0010C0CFA00F3B1F800C07D
:100AA0000CEA03069E4220D183004FF00F0C0CFA93
:100AB00003F7BC4305FA03FC4CEA040491F803C0B5
:100AC000BCF1280F06D14FF0010C0CFA00FCC2F863
:100AD00014C00AE091F803C0BCF1480F05D14FF0F3
:100AE000010C0CFA00FCC2F810C0401C0828D1D33D
:100AF0001460B1F800C0BCF1FF0F34DD5468002071
:100B00002EE000F1080C4FF0010808FA0CF3B1F8E0
:100B100000C00CEA03069E4221D183004FF00F0C67
:100B20000CFA03F7BC4305FA03FC4CEA040491F801
:100B300003C0BCF1280F05D100F1080C08FA0CF82D
:100B4000C2F8148091F803C0BCF1480F07D100F13E
:100B5000080C4FF0010808FA0CF8C2F81080401C8D
:100B60000828CED35460BDE8F0814FF6FF710180B4
:100B7000022181700421C1707047024600209368F1
:100B80000B400BB1012000E000207047014688684F
:100B900080B2704702460020D3680B400BB10120A1
:100BA00000E0002070470146C86880B270470161CC
:100BB0007047416170470AB1016100E041617047CF
:100BC000C16070474FF480320A4382618161826163
:100BD00082698269704702460020434B18684FF6CD
:100BE0008073184040EA021008433F4B186070477A
:100BF0003E49C8617047F0B50A4600230024002131
:100C0000002500F00046B6F1004F02D1364EF169E2
:100C100001E0354E7168C0F3034583B200F440161D
:100C2000B6F5401F08D121F070612F4E766826F08E
:100C300070662D4F7E6012E000F48016B6F5801FBE
:100C400006D1032606FA05F4A14341F0706106E0DF
:100C5000460D360103FA06F6B14341F0706122B148
:100C6000460D360103FA06F6314300F00046B6F1B0
:100C7000004F02D11C4EF16101E01B4E7160F0BDCE
:100C800030B500228B071C0F0F2303FA04F2164B1A
:100C900008338C1053F824309343134C08348D10D0
:100CA00044F8253023468C1053F824308C07240F49
:100CB00000FA04F423430C4C08348D1044F825301A
:100CC00030BD0A49DC31086070470000000801406F
:100CD000000C0140001001400014014000180140C8
:100CE000001C0140002001400000014000002042A3
:100CF000DF48006840F00100DD49086008464068B0
:100D0000DC490840DA49486008460068DA4908408A
:100D1000D74908600846006820F48020086008462B
:100D2000406820F4FE0048604FF41F008860704760
:100D3000CF49096821F48031CD4A11601146096814
:100D400021F480211160B0F5803F03D0B0F5802FF1
:100D50000ED106E0C649096841F48031C44A1160E9
:100D600007E0C349096841F4A021C14A116000E0CD
:100D700000BF00BF704710B50146002200230020CD
:100D80004A11012A02D1BA4C236806E0022A02D194
:100D9000B74C236A01E0B64C636A01F01F020124DC
:100DA00094401C400CB1012000E0002010BD38B57B
:100DB000002000900024002500BF3120FFF7DBFF5A
:100DC00005460098401C00900098B0F5A06F01D037
:100DD000002DF2D03120FFF7CEFF08B1012400E052
:100DE0000024204638BD01460020A14A106820F0AA
:100DF000F80040EAC10010607047A04908607047E1
:100E0000024600209A4B586820F47C1042EA010305
:100E10001843974B586070479849086670470146D9
:100E20000020934A506820F0030008435060704748
:100E30008F48406800F00C007047014600208C4A43
:100E4000506820F0F00008435060704701460020D1
:100E5000874A506820F4E0600843506070470146BC
:100E60000020834A506820F4605040EAC10050607E
:100E7000704729B17E4A527A02437D4B5A7204E090
:100E80007B4A527A82437A4B5A7270477B49D831F7
:100E90000860704701460020754A506820F44040C1
:100EA0000843506070470021714A20321170704A27
:100EB00082F82010012802D004280AD104E0012180
:100EC0006B4A2032117005E00521694A2032117009
:100ED00000E000BF00BF704769490860704764497F
:100EE000096A0143624A11627047654944390860E2
:100EF000704730B500210022002400235C4D6D684E
:100F000005F00C0121B1042905D0082923D105E001
:100F10005C4D056022E05B4D05601FE0544D6D683F
:100F200005F47012524D6D6805F48034022505EB0E
:100F300092421CB9544D554305600BE04C4D6D6811
:100F400005F400351DB1504D5543056002E04D4D8F
:100F50005543056002E04B4D056000BF00BF444DA6
:100F60006D6805F0F0010909484D6B5C0568DD40CE
:100F700045603F4D6D6805F4E061090A434D6B5CC7
:100F80004568DD4085603A4D6D6805F46051C90AD9
:100F90003E4D6B5C4568DD40C560354D6D6805F4C0
:100FA0004041890B3A4D6B5CC568B5FBF3F50561B3
:100FB00030BD29B12E4A526902432D4B5A6104E0DB
:100FC0002B4A526982432A4B5A61704729B1284AF9
:100FD00092690243264B9A6104E0254A9269824352
:100FE000234B9A61704729B1214AD2690243204BB1
:100FF000DA6104E01E4AD26982431D4BDA61704710
:1010000029B11B4AD2680243194BDA6004E0184A3E
:10101000D2688243164BDA60704729B1144A1269CC
:101020000243134B1A6104E0114A12698243104BC8
:101030001A61704712494039086070470F49C86407
:1010400070470B49C87170470948406A40F080708A
:1010500007494862704701460020054A92680A40E5
:101060000AB1012000E000207047014988727047F2
:10107000001002400000FFF8FFFFF6FE00004242B1
:101080008004424200127A0000093D001400002052
:101090002400002010B50446FE48844208D10121F6
:1010A000C014FFF7ADFF0021E014FFF7A9FFC4E073
:1010B000B4F1804F08D101210846FFF7AEFF0021AF
:1010C0000120FFF7AAFFB8E0F348844208D10121CC
:1010D0000220FFF7A2FF00210220FFF79EFFACE0F5
:1010E000EE48844208D101210420FFF796FF002139
:1010F0000420FFF792FFA0E0E948844208D10121D3
:101100000820FFF78AFF00210820FFF786FF94E000
:10111000E448844208D101211020FFF77EFF00211E
:101120001020FFF77AFF88E0DF48844208D10121D0
:101130002020FFF772FF00212020FFF76EFF7CE0E8
:10114000DA48844208D101214014FFF759FF0021F9
:101150006014FFF755FF70E0D548844209D10121A2
:10116000C804FFF74DFF00214FF40020FFF748FFB0
:1011700063E0D048844209D101210805FFF740FF10
:1011800000214FF48010FFF73BFF56E0CA4884422D
:1011900009D101214805FFF733FF00214FF400106A
:1011A000FFF72EFF49E0C548844208D101214020C5
:1011B000FFF733FF00214020FFF72FFF3DE0C0483D
:1011C000844208D101218020FFF727FF00218020E1
:1011D000FFF723FF31E0BB48844208D1012180158D
:1011E000FFF71BFF0021A015FFF717FF25E0B6480A
:1011F000844209D101210804FFF702FF00214FF4C6
:101200008030FFF7FDFE18E0B048844209D101218B
:101210004804FFF7F5FE00214FF40030FFF7F0FE21
:101220000BE0AB48844208D101218804FFF7E8FEB7
:1012300000214FF48020FFF7E3FE10BD002202885A
:10124000944B98420ED0994B98420BD0B0F1804FFE
:1012500008D0914B984205D0904B984202D0904BC9
:10126000984204D14FF68F731A404B881A438D4B26
:10127000984207D08C4B984204D04FF6FF431A4057
:10128000CB881A4302808B8883850B880385814B2A
:1012900098420BD0854B984208D08B4B984205D092
:1012A0008A4B984202D08A4B984201D10B7A03862E
:1012B00001238382704770B5002400220023058C2F
:1012C0004FF6FE7635400584028C8388048B4FF6FA
:1012D0008F752C40B51E2C400D882C43751E2A405E
:1012E0000D892A434D882A436A4DA8420BD06F4D81
:1012F000A84208D0744DA84205D0744DA84202D02F
:10130000734DA84213D14FF6F7752A404D892A43F1
:101310004FF6FB752A408D882A434FF6FF652B4018
:101320004FF6FF552B408D892B43CD892B4383806E
:101330000483CD888586028470BD70B500240022A8
:101340000023058C4FF6EF7635400584028C8388A8
:10135000048B48F6FF752C404FF6FF452C400D8856
:101360004FF6FF7606EA05252C434FF6DF752A4037
:101370000D8906EA05152A434D8806EA05152A4314
:10138000444DA84202D0494DA8421DD14FF67F7569
:101390002A404D894FF6FF7606EA05152A434FF697
:1013A000BF752A408D8806EA05152A434FF6FF359A
:1013B0002B404FF2FF752B408D8906EA85052B43A4
:1013C000CD8906EA85052B4383800483CD88058774
:1013D000028470BD70B5002400220023058C4FF6F6
:1013E000FF6635400584028C8388848B4FF68F75A9
:1013F0002C404FF6FC752C400D882C434FF6FF55C2
:101400002A400D894FF6FF7606EA05252A434D88C6
:1014100006EA05252A431F4DA84202D0234DA842C3
:101420001DD14FF2FF752A404D894FF6FF7606EA2F
:1014300005252A434FF6FF352A408D8806EA052503
:101440002A434EF6FF752B404DF6FF752B408D89D4
:1014500006EA05152B43CD8906EA05152B43838043
:101460008483CD888587028470BD70B500220023F7
:101470000024058C4EF6FF7635400584038C848865
:10148000828B48F6FF752A404FF6FF452A400D88AB
:1014900020E00000002C0140000400400008004053
:1014A000000C0040001000400014004000340140D7
:1014B000004C014000500140005401400018004021
:1014C000001C00400020004000400140004401405A
:1014D000004801404FF6FF7606EA05252A434DF6FF
:1014E000FF752B400D8906EA05352B434D8806EA2A
:1014F00005352B43FA4DA84202D0FA4DA84208D137
:101500004BF6FF752C408D894FF6FF7606EA851560
:101510002C4384808283CD88A0F84050038470BD22
:10152000828B4FF2FF331A408283828B4FF6FF7318
:1015300003EA01231A4382837047F0B50C4615462F
:10154000002200210026078C4EF6FF7C07EA0C07DC
:101550000784828B018C4FF6FF7707EA043640F64A
:10156000FF473A404FF6FF7707EA05273A434FF621
:10157000FF7707EA03373A43D94FB8420ED0D94F25
:10158000B8420BD0B0F1804F08D0D74FB84205D049
:10159000D64FB84202D0D64FB84206D14DF6FF77AB
:1015A000394046F48057394305E047F6FF57394044
:1015B00044F48057394382830184F0BD828B4FF617
:1015C000F3731A408283828B0A4382837047F0B59B
:1015D0000C461546002200210026078C4FF6FF6CB2
:1015E00007EA0C070784828B018C4FF6FF7707EA26
:1015F00004264FF60C773A404FF6FF7707EA0317B9
:101600002F433A43B64FB8420ED0B64FB8420BD034
:10161000B0F1804F08D0B44FB84205D0B34FB842B4
:1016200002D0B34FB84206D14FF6FF57394046F4C7
:101630008077394305E04FF2FF57394044F4807713
:10164000394382830184F0BD028B4FF2FF331A408D
:101650000283028B4FF6FF7303EA01231A430283CE
:101660007047F0B50C461546002200210026078C75
:101670004FF6EF7C07EA0C070784028B018C4FF6CC
:10168000FF7707EA041640F6FF473A404FF6FF7728
:1016900007EA03373A434FF6FF7707EA05273A434D
:1016A0008F4FB8420ED08F4FB8420BD0B0F1804F61
:1016B00008D08D4FB84205D08C4FB84202D08C4F25
:1016C000B84206D14FF6DF77394046F0100739436C
:1016D00005E04FF65F77394044F010073943028345
:1016E0000184F0BD028B4FF6F3731A400283028B24
:1016F0000A4302837047F0B50C46154600220021CC
:10170000068C4FF6FE773E400684028B018C4FF626
:101710000C7632407E1C06EA03162E433243704E8E
:10172000B0420ED06F4EB0420BD0B0F1804F08D017
:101730006D4EB04205D06D4EB04202D06C4EB042FC
:1017400006D14FF6FD76314044F00106314305E005
:101750004FF6F576314044F00106314302830184AF
:10176000F0BD70B505460C465D4885420ED05D481B
:1017700085420BD0B5F1804F08D05B48854205D03B
:101780005A48854202D05A48854200D100E000BF45
:10179000208850B92389A28861882846FFF7ABFFCB
:1017A000E1882846FFF79EFF25E0208804280AD11B
:1017B0002389A28861882846FFF753FFE1882846DD
:1017C000FFF742FF17E0208808280AD12389A28862
:1017D00061882846FFF7FBFEE1882846FFF7EEFE0A
:1017E00009E02389A28861882846FFF7A6FEE188E0
:1017F0002846FFF795FE70BD2DE9F04105460C46E1
:1018000000260127608808B9022600E00026A0888B
:10181000012801D1022700E001272088A0B92389EF
:10182000A28861882846FFF766FFE1882846FFF70F
:1018300059FF23893A4631462846FFF712FFE188CF
:101840002846FFF701FF13E02389A2886188284614
:10185000FFF707FFE1882846FFF7F6FE23893A469F
:1018600031462846FFF747FFE1882846FFF73AFF51
:10187000BDE8F0810A884B881A438B881A43CB88CD
:101880001A430B891A434B891A438B891A43A0F8D0
:10189000442070474FF6FF71818000210180C18094
:1018A0004180017270470021018041808180C180A8
:1018B000018141818181C181704700210180418086
:1018C000012181800021C1800181704700210180B8
:1018D00041808180C1800181418181817047000008
:1018E000002C01400034014000040040000800408A
:1018F000000C004021B1028842F00102028004E0A5
:1019000002884FF6FE731A400280704731B1B0F87A
:10191000442042F40042A0F8442005E0B0F84420FE
:10192000C2F30E02A0F8442070471AB183890B431A
:10193000838102E083898B43838170478182704772
:1019400041EA0203A0F8483070471AB183890B437B
:10195000838102E083898B438381704701894FF63D
:10196000F8721140018170470A46002101894FF643
:101970008F73194011430181704730B504460D46FD
:1019800029462046FFF7F0FF208940F0070020811C
:1019900030BD2DE9F04104460D4616461F46602D28
:1019A00006D13B46012231462046FFF75AFE05E0AC
:1019B0003B46012231462046FFF79DFE2946204640
:1019C000FFF7D2FF208940F007002081BDE8F081B9
:1019D00030B50C4600210189C9B24FF6FF7505EA02
:1019E0000325154325432943018130BD2DE9F041ED
:1019F00005460E4617469846002443463A46314669
:101A00002846FFF7E5FF2C894FF6F870044044F0B4
:101A100007044FF68F70044044F070042C81BDE839
:101A2000F081F0B504460D4616461F463B46324649
:101A300029462046FFF7CCFF208940F480402081D2
:101A4000F0BD0185828270470A46002101884FF669
:101A50008F731940114301807047F0B50C4615464D
:101A60001E460021002200230189028B038C4FF6C1
:101A7000F877394021434FF6FC473A4040F20117CE
:101A80003A434FF6DD773B404FF6FF7707EA0617FC
:101A90002F433B43018102830384F0BD0A460021AA
:101AA000018B4FF68F7319401143018370470A462B
:101AB0000021018B48F6FF7319404FF6FF7303EACC
:101AC00002231943018370470A460021818B4FF698
:101AD0008F7319401143818370470A460021818B1F
:101AE00048F6FF7319404FF6FF7303EA02231943C8
:101AF0008183704721B1028842F08002028004E0B5
:101B000002884FF67F731A400280704721B18288A5
:101B100042F00402828004E082884FF6FB731A4090
:101B20008280704721B1828842F00802828004E0FE
:101B300082884FF6F7731A408280704721B18288FD
:101B400042F00102828004E082884FF6FE731A4060
:101B5000828070470A460021018B4FF6F7731940C7
:101B60001143018370470A460021018B4FF2FF7336
:101B700019404FF6FF7303EA0223194301837047AC
:101B80000A460021818B4FF6F77319401143818378
:101B900070470A460021818B4FF2FF7319404FF6C0
:101BA000FF7303EA02231943818370470A46002129
:101BB000018B4FF6FB7319401143018370470A46AE
:101BC0000021018B4FF6FF3319404FF6FF7303EAF4
:101BD00002231943018370470A460021818B4FF687
:101BE000FB7319401143818370470A460021818BA2
:101BF0004FF6FF3319404FF6FF7303EA02231943F0
:101C0000818370470A460021018B4FF67F7319408C
:101C10001143018370470A460021018BC1F30E0175
:101C20004FF6FF7303EA02231943018370470A4604
:101C30000021818B4FF67F731940114381837047D8
:101C40000A460021818BC1F30E014FF6FF7303EAB0
:101C500002231943818370470A460021018C4FF605
:101C6000FD7319401143018470470A460021018C1D
:101C70004FF6F77319401143018470470A4600215B
:101C8000018C4FF6DF7319404FF6FF7303EA02131E
:101C90001943018470470A460021018C4FF67F7377
:101CA00019404FF6FF7303EA02131943018470478A
:101CB0000A460021018C4FF6FF5319404FF6FF737F
:101CC00003EA02231943018470470A460021018C6C
:101CD0004FF2FF7319404FF6FF7303EA02231943D3
:101CE000018470470A460021018C4DF6FF731940AC
:101CF0004FF6FF7303EA023319430184704730B58E
:101D0000002301248C40A3B2048C9C430484048CE3
:101D100002FA01F5ADB22C43048430BD30B5002386
:101D200004248C40A3B2048C9C430484048C02FAE7
:101D300001F5ADB22C43048430BD70B503460020DC
:101D400000241846183001258D40ACB21D8CA543E7
:101D50001D8409B1082909D100EB6100056825F04F
:101D6000700505600568154305600EE00D1FC5F39D
:101D70004E052844056825F4E045056005684FF6E2
:101D8000FF7606EA02263543056070BD21B1028860
:101D900042F00202028004E002884FF6FD731A400E
:101DA0000280704721B1028842F00402028004E000
:101DB00002884FF6FB731A400280704721B1828877
:101DC00042F08002828004E082884FF67F731A40DE
:101DD0008280704702884FF6F7731A4002800288AB
:101DE0000A430280704782884FF68F731A408280C0
:101DF00082880A438280704702894FF6F8731A403E
:101E0000028102890A430281704702894FF67F737B
:101E10001A40028102890A43028170478184704717
:101E20008185704781867047018770478187704739
:101E3000A0F84010704702884FF6FF431A40028016
:101E400002880A43028070470146888E7047014627
:101E5000088F70470146888F70470146B1F84000EF
:101E600070470146888C70470146088D70470246CE
:101E70000020138A0B400BB1012000E000207047C6
:101E8000CA430282704730B5024600200023002476
:101E9000158A05EA0103958905EA010413B10CB11D
:101EA000012000E0002030BDCA43028270470000DC
:101EB00010B50446FB48844209D101218803FFF78D
:101EC0009FF800214FF48040FFF79AF832E0F6487F
:101ED000844209D101214804FFF79FF800214FF403
:101EE0000030FFF79AF825E0F048844209D101213B
:101EF0008804FFF792F800214FF48020FFF78DF857
:101F000018E0EB48844209D10121C804FFF785F8A5
:101F100000214FF40020FFF780F80BE0E5488442F1
:101F200008D101210805FFF778F800214FF480104F
:101F3000FFF773F810BD2DE9F04786B005460E4651
:101F40000024A24600BFA1460027B08900B100BF0F
:101F50002F462C8A4CF6FF700440F08804432C82F4
:101F6000AC894EF6F3100440B0883189084371897A
:101F700008430443AC81AC8A4FF6FF400440B0896B
:101F80000443AC8201A8FEF7B4FFC648874202D1E1
:101F9000DDF810A001E0DDF80CA0A88900F40040F5
:101FA00040B10AEBCA0000EB0A1031684900B0FBEF
:101FB000F1F807E00AEBCA0000EB0A10316889006B
:101FC000B0FBF1F86420B8FBF0F0040120096421B3
:101FD00001FB1089A88900F4004040B1322000EBD9
:101FE000C900B0FBF1F000F00700044308E0322024
:101FF00000EB09106421B0FBF1F000F00F00044386
:102000002C8106B0BDE8F0874FF416510160002125
:102010008180C18001810C21418100218181704733
:1020200010B502460020108A4FF2FF0318400B88BB
:102030004C8823438C882343CC8823431843108245
:1020400010BD0021018041808180C180704721B195
:10205000828942F40052828104E082894DF6FF7346
:102060001A4082817047F0B50346002400260025FF
:10207000002040F66A17B94200D100BF1846C1F3EC
:10208000421401F01F06012707FA06F5012C01D1C1
:102090000C3004E0022C01D1103000E014301AB1F1
:1020A00007682F43076002E00768AF430760F0BD91
:1020B0001AB1838A0B43838202E0838A8B43838233
:1020C0007047028A4FF6F0731A400282028A0A436E
:1020D0000282704782894FF2FF731A40828182899F
:1020E0000A438281704721B1828942F002028281D3
:1020F00004E082894FF6FD731A4082817047028A9C
:102100004FF6DF731A400282028A0A430282704746
:1021100021B1028A42F48042028204E0028A4BF634
:10212000FF731A4002827047C1F308028280704731
:1021300001468888C0F308007047818941F0010199
:1021400081817047028BD2B20283028B42EA012264
:1021500002837047028B02F47F420283028B0A43A0
:102160000283704721B1828A42F02002828204E019
:10217000828A4FF6DF731A408282704721B1828AC9
:1021800042F01002828204E0828A4FF6EF731A4016
:102190008282704721B1828A42F00802828204E082
:1021A000828A4FF6F7731A408282704721B1828982
:1021B00042F40042828103E08289C2F30E028281EE
:1021C000704721B1828A42F40062828204E0828AEE
:1021D0004FF2FF731A4082827047828A4FF6FB7378
:1021E0001A408282828A0A438282704721B1828A9F
:1021F00042F00202828204E0828A4FF6FD731A40A6
:102200008282704702460020B1F5007F00D100BFF6
:1022100013880B400BB1012000E00020704701F44F
:102220000072B2F5007F00D100BFCA430280704740
:1022300070B50246002400230025002040F66A16EF
:10224000B14200D100BFC1F3421501F01F030126C6
:1022500006FA03F3012D02D19689334006E0022DE0
:1022600002D1168A334001E0968A33400C120126CF
:1022700006FA04F41688344013B10CB1012000E0D2
:10228000002070BD10B50022002340F66A14A14260
:1022900000D100BF0A1201249440A3B2DC430480A1
:1022A00010BD0000003801400044004000480040DC
:1022B000004C004000500040002400254FF4A06076
:1022C000FEF744F8022000F095F8012000F092F8A3
:1022D00000F020FA00F0E2F800F09FF801F076F844
:1022E00001F0EBF9002141F61F4000F05BFD00F02A
:1022F000E9FA00F036FB00F083FB00F0D1FB01F0BF
:1023000033FA01F047FC00F091FE00F036FE472161
:102310004FF6FF7006F034F80AF0BEFA04F0FDFB49
:102320004FF4004024490860C82000F09DFA4FF4A3
:1023300000402149091D086020480078012804D187
:10234000472142F20F7000F035FD03F00EFB312102
:1023500041F61F4000F0EDFC2CE004F0DEFB1848D5
:102360000078B8B108201749086101F021FC03F09A
:1023700002FC04F003FB00F076FE0444681CC0B2CB
:10238000054605280BD1B4FBF0F00F490880002565
:10239000002404E008200B49486104F08DFB012073
:1023A0000A49087000200A49087000BF07480078F1
:1023B0000028FBD1D1E700001008014031000020C7
:1023C00032000020001001402A00002029000020D7
:1023D00028000020704700BFFEE700BFFEE700BFF7
:1023E000FEE700BFFEE770477047704710B500F08A
:1023F00012FA10BD01464906244A926942F00102D0
:10240000224B9A61224A526822F0E062204B5A60C5
:102410001A4652680A435A60704708B50220FFF70F
:10242000E9FF0120FFF7E6FF01210420FEF7CEFDC2
:102430004FF40040ADF8000010208DF8030002209A
:102440008DF8020069461348FEF704FB4FF4004183
:102450001048FEF7AEFB08BD28B94FF400410D4A05
:102460001432116011E00C490968491C0A4A1160D4
:1024700081420ADB07490C31096881F40041054AB1
:102480000C3211600021044A1160704700100240B4
:1024900000000140000801405400002008B501215F
:1024A0001420FEF793FD0120ADF8000004208DF804
:1024B000030069468B48FEF7CDFA4FF40050ADF8A3
:1024C000000004208DF8030069468748FEF7C2FA31
:1024D00008BD70B504460D4629462046FEF74DFB63
:1024E000012808D100BF29462046FEF746FB0128F7
:1024F000F9D0012070BD0020FCE710B57B480078C2
:10250000062875D2DFE800F0030F2C3E5D7D012127
:102510007448FEF732FB012804D174480078401C4F
:102520007249087082E072480088401C80B270498D
:102530000880052813D101216A48FEF71EFB0128F7
:1025400008D16A480078401C684908700020684932
:10255000088004E00020664908806449087065E04E
:1025600001216048FEF709FB012805D16048008879
:10257000401C5F49088004E05C480078401C5B49CF
:10258000087053E05A480088B0F5C87F06DD002087
:102590005649087056490880022010BD54480088EA
:1025A000052808DD51480078401C5049087000207B
:1025B0004F49088004E000204C4908704C490880CD
:1025C00034E04B480088401C80B2494908802628E6
:1025D00016D101214348FEF7D0FA012809D143481A
:1025E0000078401C4149087000204149088007E0FC
:1025F0001BE000203D4908703D4908800120CCE7E0
:1026000014E001213748FEF7B8FA012805D138480F
:102610000088401C3649088006E0002034490880C4
:10262000324908700320B8E700E000BF00BF002077
:10263000B3E710B5FFF761FF012804D002282FD0BF
:1026400003284BD135E02B480078401C29490870FD
:1026500008460078042802D106F043F91FE0254817
:102660000078052807D106F0AEF94FF400401D4967
:102670001431086013E01F48007806280FD10020AD
:102680001C4908701C4908601C4908601C494860C6
:102690001C4948604FF400401249143108601EE0A4
:1026A0001948007808B9012000E000201649087098
:1026B00015E01048007804280FD11448007808B9B4
:1026C000012000E00020114908700846007820B978
:1026D00040F624110E480AF007FC00E000BF00BFDE
:1026E00010BD000000080140001001405A00002009
:1026F00058000020C0000020AC000020A8000020EE
:10270000440800203408002032000020C8000020C7
:10271000AE12002008B501211020FEF757FC04205E
:10272000ADF8000010208DF8030002208DF80200A3
:1027300069461448FEF78EF90820ADF80000694696
:102740001048FEF787F904210E48FEF730FA0821F9
:102750000C48FEF72CFA08BD18B90421094A11618A
:102760000FE009490968491C074A1160814208DBEA
:102770000449C96881F00401024AD1600021024A7B
:1027800011607047001001405C00002030B5014628
:10279000B1F1807F01D3012030BD21F07F40401E88
:1027A0004FF0E022506150170F22002807DA13077C
:1027B0001D0E3E4B00F00F04241F1D5503E01307B0
:1027C0001C0E3B4B1C5400BF00204FF0E0229061D8
:1027D000072010610020DFE710B536480068364951
:1027E000B0FBF1F42046FFF7D1FF08B100BFFEE7D0
:1027F00010BD01B53149009808604FF0E020006934
:1028000040F001004FF0E021086100BF2B48006854
:102810000028FBD108BD2948006820B1274800687E
:10282000401E26490860704731B522480068244997
:10283000B0FBF1F52846FFF7A9FF002408E000BF30
:102840004FF0E020006900F480300028F8D0641CCC
:1028500000988442F3D34FF0E020006920F001009B
:102860004FF0E021086138BD31B5124800684FF4DF
:102870007A71B0FBF1F52846FFF788FF002408E0E5
:1028800000BF4FF0E020006900F480300028F8D04D
:10289000641C00988442F3D34FF0E020006920F0DC
:1028A00001004FF0E021086138BD000018ED00E0A4
:1028B00000E400E000000020A0860100600000208D
:1028C00040420F0000B587B001210420FEF77EFBD7
:1028D00001218803FEF77AFB4FF40070ADF8180071
:1028E00018208DF81B0003208DF81A0006A9AA48AD
:1028F000FEF7B0F84FF48060ADF8180048208DF86E
:102900001B0006A9A448FEF7A5F825208DF81400A1
:1029100001208DF815008DF816008DF8170005A818
:10292000FDF719FD4FF4E13001900020ADF80800EB
:10293000ADF80A00ADF80C00ADF810000C20ADF8B1
:102940000E0001A99548FFF7F6FA012240F2255141
:102950009248FFF788FB01219048FFF778FB07B00A
:1029600000BD00B587B001210820FEF72FFB012133
:102970008804FEF738FB4FF48060ADF8180018208B
:102980008DF81B0003208DF81A0006A98448FEF775
:1029900061F84FF40060ADF8180004208DF81B00BA
:1029A00006A97F48FEF756F827208DF8140001206D
:1029B0008DF815008DF816008DF8170005A8FDF7A5
:1029C000CAFC4FF4165001900020ADF80800ADF895
:1029D0000A00ADF80C00ADF810000C20ADF80E00A8
:1029E00001A97048FFF7A7FA012240F225516D486E
:1029F000FFF739FB01216B48FFF729FB07B000BD4A
:102A000000B587B06848FFF753FA01213020FEF780
:102A1000DDFA01210805FEF7E6FA4FF48050ADF823
:102A2000180018208DF81B0003208DF81A0006A945
:102A30005E48FEF70FF80420ADF818008DF81B0073
:102A400006A95B48FEF706F835208DF81400012032
:102A50008DF815008DF816008DF8170005A8FDF704
:102A60007AFC4FF4E13001900020ADF80800ADF899
:102A70000A00ADF80C00ADF810000C20ADF80E0007
:102A800001A94948FFF757FA012240F2255146486B
:102A9000FFF7E9FA01214448FFF7D9FA07B000BD72
:102AA00000B587B001211020FEF790FA0121C8047B
:102AB000FEF799FA4FF48060ADF8180018208DF8F1
:102AC0001B0003208DF81A0006A93848FDF7C2FF45
:102AD0004FF40060ADF8180048208DF81B0006A9DF
:102AE0003248FDF7B7FF34208DF8140001208DF82F
:102AF00015008DF816008DF8170005A8FDF72BFCC2
:102B00004FF4E13001900020ADF80800ADF80A0064
:102B1000ADF80C00ADF810000C20ADF80E0001A9C6
:102B20002448FFF708FA012240F225512148FFF717
:102B30009AFA01211F48FFF78AFA07B000BD70B565
:102B400004460D461C48007860B900BF8021134838
:102B5000FFF758FB0028F9D0E1B21048FFF7E4FA7C
:102B6000204670BD00BF80210E48FFF74BFB0028B8
:102B7000F9D0E1B20B48FFF7D7FA2046F1E710B5DC
:102B8000044600BF20210548FFF73CFB0028F9D090
:102B90000248FFF7CDFA10BD00080140003801409F
:102BA000000C01400048004000500040001001406F
:102BB00000140140004C00403200002008B5012103
:102BC0000420FEF703FA4020ADF8000018208DF82D
:102BD000030003208DF8020069466E48FDF73AFFB6
:102BE00001210420FEF7F2F98020ADF80000182042
:102BF0008DF8030003208DF8020069466548FDF753
:102C000029FF01210820FEF7E1F90120ADF80000BD
:102C100018208DF8030003208DF8020069465E48F5
:102C2000FDF718FF01210820FEF7D0F90220ADF8CA
:102C3000000018208DF8030003208DF8020069467B
:102C40005548FDF707FF08BD30B587B005460C466F
:102C500001210220FEF7C7F9ADF81450ADF810407D
:102C60000020ADF81200ADF8160004A94B48FEF79D
:102C7000E5FA6020ADF800000120ADF80200002068
:102C8000ADF80600ADF8080069464448FEF713FBAE
:102C90006020ADF800000120ADF802000020ADF882
:102CA0000600ADF8080069463C48FEF746FB602088
:102CB000ADF800000120ADF802000020ADF80600DC
:102CC000ADF8080069463548FEF784FB6020ADF892
:102CD00000000120ADF802000020ADF80600ADF8BC
:102CE000080069462D48FEF7C0FB08212B48FEF777
:102CF00031FF08212948FEF736FF08212748FEF753
:102D00003FFF08212548FEF744FF01212348FEF735
:102D1000F1FE01212148FEF7EDFD07B030BD70B591
:102D200004460D46FFF74AFF29462046FFF78CFF71
:102D300070BD7FB505460C4632208DF8000002209C
:102D40008DF8010001208DF802008DF8030068461F
:102D5000FDF701FB01210820FEF745F9ADF8085009
:102D6000ADF804400020ADF80600ADF80A0001A956
:102D70000B48FEF763FA01210948FFF781F80122A9
:102D800011460748FEF7D1FD01210548FEF7B2FDC7
:102D90007FBD000000080140000C0140000400401D
:102DA000000C004070B504460D4629462046FFF74A
:102DB000B6FF70BD30B589B005460C460121C8028A
:102DC000FEF704F901210420FEF700F918208DF820
:102DD00023004FF48070ADF8200003208DF822000E
:102DE00008A93748FDF736FEADF81850ADF8144085
:102DF0000020ADF81600ADF81A0005A93148FEF71D
:102E00001DFA6020ADF804000120ADF80600002096
:102E1000ADF80A00ADF80C00ADF8100001A9294882
:102E2000FEF749FA08212748FEF794FE01212548BC
:102E3000FEF76CFD01212348FEF75CFE01212148CD
:102E4000FEF758FD204800881E493431088009B03B
:102E500030BD70B504460D461C480078012805D1E8
:102E60001948008881B21748FEF7DCFF002C08DA09
:102E70004FF4E1501649088004F5E150091D08801F
:102E800008E04FF4E1501249091D0880C4F5E150F3
:102E9000091F0880002D09DA4FF4E1500C49083170
:102EA000088005F5E150091D088008E04FF4E15065
:102EB00007490C310880C5F5E150091F088070BD35
:102EC00000080140002C0140C40000203100002017
:102ED0003404004008B501211020FEF777F80220E5
:102EE000ADF8000000208DF8030069467748FDF733
:102EF000B1FD08BD00B585B001218802FEF766F876
:102F00007348FDF791FA002000908DF804008DF8C9
:102F100005004FF4602002900020039001208DF8FE
:102F2000100069466A48FDF7A6FA4FF40040FDF725
:102F3000B1FF072301220B216548FDF734FB012275
:102F40004FF408716248FDF7D8FA01216048FDF797
:102F5000BEFA5F48FDF7DDFA00BF5D48FDF7DEFA17
:102F60000028FAD15A48FDF7E3FA00BF5848FDF7A8
:102F7000E4FA0028FAD105B000BD10B5FFF7AAFFAA
:102F8000FFF7B8FF10BD08B501211020FEF71EF8AD
:102F90000120ADF8000000208DF8030069464B4881
:102FA000FDF758FD08BD00B585B001214802FEF7C8
:102FB0000DF84848FDF738FA002000908DF804001D
:102FC0008DF805004FF4602002900020039001204E
:102FD0008DF8100069463F48FDF74DFA4FF4004068
:102FE000FDF758FF072301220A213A48FDF7DBFAD3
:102FF00000224FF408713748FDF77FFA0121354868
:10300000FDF765FA3348FDF784FA00BF3148FDF754
:1030100085FA0028FAD12F48FDF78AFA00BF2D481B
:10302000FDF78BFA0028FAD105B000BD10B5FFF707
:10303000AAFFFFF7B8FF10BD10B504460723012211
:1030400021462348FDF7AFFA01212148FDF77FFA19
:1030500000BF02211E48FDF7EBFB0028F9D01C48F9
:10306000FDF708FB10BD2DE9F0470B20FFF7E4FF4B
:1030700081460AF0AAF98046174909F0A5FF0746DC
:10308000164909F0A1FF0646154909F09DFF0546BE
:103090000AF0D7F984B22046BDE8F08710B504469F
:1030A0000723012221460B48FDF77DFA012109483B
:1030B000FDF74DFA00BF00BF02210648FDF7B8FB3F
:1030C0000028F9D00348FDF7D5FA10BD00100140E3
:1030D00000280140002401406740533A000030417D
:1030E0000000C84210B50A461AB10123FE4C236005
:1030F00002E00023FC4C2360002115E00023FB4C80
:10310000236000F0800323B10123F74C08342360CF
:1031100003E00023F44C083423600123F34C2360C4
:103120004306180E4B1CD9B20829E7DB0123EE4CED
:10313000236010BD30B500241CE004F1B001C8B21A
:103140000021FFF7CFFF00210846FFF7CBFF00214A
:103150001020FFF7C7FF002508E0E54901EBC50196
:10316000085D0121FFF7BEFF681CC5B2802DF4DBAE
:10317000601CC4B2082CE0DB30BD00B500218D20FE
:10318000FFF7B0FF00211420FFF7ACFF0021AF20B4
:10319000FFF7A8FF00BD00B500218D20FFF7A2FFBB
:1031A00000211020FFF79EFF0021AE20FFF79AFFBD
:1031B00000BD30B500240CE0002506E00020CC491D
:1031C00001EBC5010855681CC5B2802DF6DB601CFB
:1031D000C4B2082CF0DBFFF7ADFF30BDF0B51446EC
:1031E00000267F2801DC3F2900DDF0BD0B46CF170C
:1031F00001EB5777FF10C7F10707FAB2CF1701EBC2
:103200005777FF10A1EBC707FDB2C5F107070123F0
:10321000BB40DEB24CB1B64B03EBC0039B5C334307
:10322000B34F07EBC007BB5408E0B14B03EBC0033F
:103230009B5CB343AE4F07EBC007BB5400BFD4E762
:103240002DE9F04F80460C4615461E46A346A5F1D3
:103250002000C5B200273EE00C2E07D105EB45004B
:10326000A44901EB800010F8079004E0A24800EBAD
:10327000051010F807904FF0000A26E009F08000D2
:1032800028B121464046099AFFF7A8FF09E00998AE
:1032900008B9012000E00020024621464046FFF721
:1032A0009DFF4FEA49604FEA1069601CC4B2A4EB6D
:1032B0000B00B04205D15C4608F1010000F0FF08A8
:1032C00006E00AF1010000F0FF0ABAF1080FD5DBB1
:1032D00000BF781CC7B2B742BEDBBDE8F08F10B5A7
:1032E0000246012000E050430B1EA1F10104E1B2AF
:1032F000F9D110BD2DE9FF4F81B0074691461E461A
:103300000E9D4FF0000A002439E0301B401EC1B270
:103310000A20FFF7E4FFB9FBF0F00A21B0FBF1F25D
:1033200001FB1208BAF1000F16D1701EA04213DD86
:10333000B8F1000F0ED10120AB4605EBDB7149104F
:1033400001FB04710090C8B22B4620220299FFF7BE
:1033500077FF12E04FF0010A0120AB4605EBDB716D
:10336000491001FB04710090C8B208F13001CAB2E3
:103370002B460299FFF764FF00BF601CC4B2B44241
:10338000C3DB05B0BDE8F08F78B505460E461446A0
:1033900018E07A2D03DD002506F11000C6B23A2EA2
:1033A00004DD002005460646FFF703FF01200090DC
:1033B00022780C2331462846FFF742FF05F108002A
:1033C000C5B2641C20780028E3D178BD08B502207E
:1033D000FFF710F80120FFF70DF801211820FDF785
:1033E000F5FD01210820FDF7F1FD4FF48040ADF817
:1033F000000010208DF8030003208DF802006946BC
:103400003E48FDF727FB2020ADF8000010208DF886
:10341000030003208DF8020069463948FDF71AFBC6
:103420001020ADF800008DF8030003208DF8020095
:1034300069463348FDF70EFB0820ADF80000102068
:103440008DF8030003208DF8020069462C48FDF733
:1034500001FB00202449091D08606420FFF704FADD
:1034600001202849C1F890010021AE20FFF73AFE63
:103470000021D520FFF736FE00215020FFF732FE55
:103480000021A820FFF72EFE00213F20FFF72AFE93
:103490000021D320FFF726FE00210846FFF722FE79
:1034A00000214020FFF71EFE00218D20FFF71AFEAD
:1034B00000211420FFF716FE00212020FFF712FE46
:1034C00000210220FFF70EFE0021A120FFF70AFED7
:1034D0000021C020FFF706FE0021DA20FFF702FEE0
:1034E0000021122010E000008C812142B80122420C
:1034F000B003002064F20008D8F600080010014074
:10350000000C014000802142FFF7ECFD00218120EA
:10351000FFF7E8FD0021EF20FFF7E4FD0021D920AF
:10352000FFF7E0FD0021F120FFF7DCFD0021DB20AB
:10353000FFF7D8FD00213020FFF7D4FD0021A420A3
:10354000FFF7D0FD0021A620FFF7CCFD0021AF2022
:10355000FFF7C8FDFFF72DFE08BD10B500210022C2
:10356000C306190E0CE0002206E00023074C04EB12
:10357000C2046354531CDAB2802AF6DB4B1CD9B266
:10358000431CB1EBC30FEEDB10BD0000B003002005
:1035900008B501211820FDF719FDC020ADF8000085
:1035A00004208DF8030069466A48FDF753FAC020ED
:1035B000ADF8000004208DF8030069466648FDF769
:1035C00049FA08BD08B51E208DF8000001208DF8CD
:1035D00003008DF8010003208DF802006846FCF717
:1035E000BAFE2C208DF8000001208DF803008DF824
:1035F000010003208DF802006846FCF7ACFE08BD10
:1036000000B587B001210420FDF7EDFC012148033E
:10361000FDF7DCFC04A8FEF73DF90020ADF8100032
:103620004FF6FF70ADF814000020ADF81600ADF8AD
:10363000120004A94948FDF701FE04A94848FDF716
:10364000FDFD00231A4603214448FEF706FA01A8AF
:10365000FEF733F90A20ADF80C0001A93F48FEF748
:1036600080F801213D48FEF70BFC012211463B4842
:10367000FEF75BF901213948FEF73CF900231A46B1
:1036800003213748FEF7E9F901A8FEF716F90A20E9
:10369000ADF80C0001A93248FEF763F8012130486B
:1036A000FEF7EEFB012211462D48FEF73EF90121FF
:1036B0002B48FEF71FF907B000BD10B5FFF768FFF4
:1036C000FFF780FFFFF79CFF10BD0146022906D0DF
:1036D00003290DD0042912D0082922D118E04FF077
:1036E0008042928C10B200224FF080439A841AE0FC
:1036F0001C4A128810B200221A4B1A8013E0174A93
:103700002432128810B20022144B24331A800AE0AB
:10371000134A2432128810B20022114B24331A802B
:1037200001E0002000BF00BF704710B501210B4829
:10373000FEF79DFB01210948FEF7B6FB10BD10B551
:1037400001210748FEF793FB01210548FEF7ACFB7A
:1037500010BD0000000C01400010014000080040B6
:10376000003401402404004008B501211820FDF771
:103770002DFC01211020FDF729FC48208DF80300C5
:103780004FF48070ADF800006946F948FDF762F922
:1037900010208DF803004001ADF8000003208DF8E3
:1037A00002006946F348FDF755F910208DF8030033
:1037B000ADF8000003208DF802006946ED48FDF7E2
:1037C00049F910208DF803000001ADF80000032036
:1037D0008DF802006946E748FDF73CF908BD38B5A9
:1037E0000446012000900020E34948700120009029
:1037F0002EE0BDF80000204018B10120DF4908602C
:1038000002E00020DD4908600120DC49091F086052
:103810000520FFF709F80020D949C1F8A0010520CB
:10382000FFF702F80120D649C1F8A001D548D0F829
:10383000200130B1D0484078BDF800100843CE498F
:103840004870BDF800004FF6FF7101EA400000909B
:10385000BDF80000FF28CCDD1020FEF7E5FF38BDE5
:1038600010B50020C54914390860C7490878FFF72A
:10387000B6FFC5494878FFF7B2FF0120C049C1F83B
:103880009001BD484078732801D1002010BD01206F
:10389000FCE71CB500200190012000900020B749F2
:1038A00014390860B8490878FFF799FFB649487895
:1038B000FFF795FF0220019036E00120009027E0FD
:1038C0000120AE49091F08600520FEF7ADFF00206A
:1038D000AB49C1F8A0010520FEF7A6FF0120A849C9
:1038E000C1F8A001A748D0F8200150B1A2489DF826
:1038F0000410405CBDF8001008439F499DF8042067
:103900008854BDF800004FF6FF7101EA40000090B6
:10391000BDF80000FF28D3DD1020FEF785FF9DF8DD
:103920000400401CC0B201909DF804000928C4DBCB
:1039300001209249143908601CBD002004E00021D8
:103940008D4A1154411CC8B20928F8DB704710B5E4
:10395000FFF7F3FFFFF79DFF8748C0788649097995
:1039600040EA01208949088000240FE0884810F8C7
:103970001400401E012101FA00F084490988084022
:1039800010B9601CC0B210BD601CC4B2102CEDDBBD
:103990000020F8E701467848405C704770B505465E
:1039A0000C4600207549143908601020FEF73CFFD2
:1039B0000120FFF714FF4220FFF711FF0020FFF75F
:1039C0000EFF2846FFF70BFF2046FFF708FF0020F9
:1039D000FFF705FF0020FFF702FF0020FFF7FFFEC3
:1039E0000020FFF7FCFE01206549C1F8900110207E
:1039F000FEF71AFF70BD10B5002060491439086049
:103A00001020FEF711FF0120FFF7E9FE4220FFF72B
:103A1000E6FE0020FFF7E3FE0020FFF7E0FE0020B7
:103A2000FFF7DDFE01205649C1F890011020FEF796
:103A3000FBFE10BD10B5002050491439086010205D
:103A4000FEF7F2FE0120FFF7CAFE4320FFF7C7FE94
:103A50000020FFF7C4FE0120FFF7C1FE0020FFF7A2
:103A6000BEFE0020FFF7BBFE0020FFF7B8FE0020DF
:103A7000FFF7B5FE0020FFF7B2FE01204049C1F874
:103A800090011020FEF7D0FE10BD10B500203B497C
:103A9000143908600120FFF7A2FE4420FFF79FFEC3
:103AA0000020FFF79CFE0120FFF799FE0320FFF79F
:103AB00096FE0020FFF793FE0020FFF790FE002007
:103AC000FFF78DFE0020FFF78AFE01202C49C1F888
:103AD00090011020FEF7A8FE10BD10B50020274968
:103AE000143908601020FEF79FFE0120FFF777FED3
:103AF0004D20FFF774FE0020FFF771FE0020FFF756
:103B00006EFE0120FFF76BFE01201D49C1F89001F8
:103B10001020FEF789FE10BD10B50020174914399A
:103B200008601020FEF780FE0120FFF758FE4320BA
:103B3000FFF755FE0020FFF752FE0020FFF74FFE73
:103B40005A20FFF74CFE5A20FFF749FE5A20FFF794
:103B500046FE5A20FFF743FE5A20FFF740FE0120A1
:103B60000749C1F890011020FEF75EFE10BD00006D
:103B7000000C014000100140B0070020A4012242C7
:103B800000002242008021426600002064000020E4
:103B90006800002010B5FFF72EFFFFF72CFFFFF79E
:103BA0002AFFFFF747FFFFF770FFFFF7B5FF10BDD4
:103BB00010B5FFF7CCFE214908600720FFF7EAFEA9
:103BC0001F4908600820FFF7E5FE1E490860052030
:103BD000FFF7E0FE1C4908600620FFF7DBFE1B49EB
:103BE000086016480068042805D11948007810B903
:103BF00001201849086017480068F0B111480068B2
:103C000076281ADA12480078B8B9012010490870ED
:103C100000201149087011490870114908701148B5
:103C20001149086011480078012803D11048114952
:103C3000086002E00E480F49086010BD980000209F
:103C4000880000208C0000209000002094000020BC
:103C50002D0000209C0000202E0000202F000020BE
:103C6000300000200000AF43B800002031000020E9
:103C7000DB0F493FBC00002030B503461C788C5454
:103C80005D78541C0D559D78941C0D55DD78D41C21
:103C90000D5530BD13B50C460A2C00DC04B91CBD13
:103CA0000B2C43D2DFE804F042060C12181E242A23
:103CB00030363C00012244496846FFF7DDFF35E01D
:103CC000052241496846FFF7D7FF2FE009223E4908
:103CD0006846FFF7D1FF29E00D223B496846FFF710
:103CE000CBFF23E0112238496846FFF7C5FF1DE0EE
:103CF000152235496846FFF7BFFF17E01922324900
:103D00006846FFF7B9FF11E01D222F496846FFF70B
:103D1000B3FF0BE021222C496846FFF7ADFF05E019
:103D2000252229496846FFF7A7FF00BF00BF00BF53
:103D3000B5E701460A2900DC09B9002070472420B4
:103D4000214A10700B293CD2DFE801F03B060B1032
:103D5000151A1F24292F350005201B4A50710620F3
:103D6000ECE70920184A50720A20E7E70D20164AAE
:103D700050730E20E2E71120134A50741220DDE741
:103D80001520114A50751620D8E719200E4A507692
:103D90001A20D3E71D200C4A50771E20CEE72120A1
:103DA000094A82F821002220C8E72520064A82F825
:103DB00025002620C2E72920034A82F829002A206C
:103DC000BCE70020BAE70000B907002010B50246A2
:103DD0000B460020012B08D1002104E0FE4C645C5E
:103DE00060404C1CE1B29142F8DB43B9002104E091
:103DF000FA4C645C60404C1CE1B29142F8DB10BDAF
:103E00002DE9F0477B20F44908767D21F24880F8BF
:103E10002E10F3480078002837D0012804D002285B
:103E200064D0032830D192E0EE4A1168EE4A10685F
:103E300009F072F806464FF0804109F0F7F80446A1
:103E4000EA4909F0C1F8054609F0E2FA01B2E24890
:103E5000418300218183E44A1168E24A106809F035
:103E6000ADF8824609F020FB8046E14AE14B09F0BB
:103E700034FA06460022E04B09F0BDF9044609F089
:103E8000F4FA01B2D448C18392E0D64A1168D64A06
:103E9000106809F041F806464FF0804109F0C6F875
:103EA0000546D24909F090F8044609F0B1FA01B28A
:103EB000C948418300218183CB4A1168C94A1068EF
:103EC00009F07CF8824609F0EFFA8046CB4ACC4BE9
:103ED00009F003FA06460022C74B09F08CF90446A4
:103EE00009F0C3FA01B2BC48C18361E0BD4A116860
:103EF000BD4A106809F010F806464FF0804109F0FD
:103F000095F80446B94909F05FF8054609F080FACA
:103F100001B2B148418300218183B34A1168B14A9B
:103F2000106809F04BF8824609F0BEFA8046B54A9F
:103F3000B54B09F0D2F906460022AF4B09F05BF908
:103F4000044609F092FA01B2A348C18330E0A54AC1
:103F50001168A54A106808F0DFFF06464FF080415F
:103F600009F064F80546A14909F02EF8044609F065
:103F70004FFA01B298484183002181839A4A11681F
:103F8000984A106809F01AF8824609F08DFA064638
:103F90009E4A9F4B09F0A1F980460022964B09F0FA
:103FA0002AF9044609F061FA01B28B48C18300BFC7
:103FB00000BF9848B0F900108748418496480088AF
:103FC000404201B2844881849448B0F9001082488C
:103FD000C1849348B0F900107F480185914800885A
:103FE000404201B27C4841858F48007828B98F480B
:103FF000B0F900107848818502E00021764881857B
:104000008B4800884FF47A71484301B272480184AA
:10401000007E714908708448007848700846408BDB
:10402000000A88700846807EC8700846808B000AA7
:1040300008710846007F48710846C08B000A8871E5
:104040000846807FC8710846408C000A08720846FE
:1040500090F8220048720846808C000A8872084650
:1040600090F82400C8720846C08C000A08730846FD
:1040700090F8260048730846008D000A88730846A9
:1040800090F82800C8730846408D000A0874084656
:1040900090F82A0048740846808D000A8874084603
:1040A00090F82C00C8740846008C000A0875084671
:1040B00090F82000487501211620FFF787FE464939
:1040C0008875084690F82E00C875BDE8F0875949F4
:1040D000088000BF5749091F098801F040010029E5
:1040E000F8D0704700B5002200BF05E03A49885C6F
:1040F000FFF7EDFF501CC2B2182AF7DB00BD2DE917
:10410000F0470446894609EB042108B209F062F938
:1041100007460022384B09F0E0F8054609F008FA96
:1041200082465046BDE8F08710B50446002120467F
:1041300009F024FA01D8204610BD84F00040FBE7C6
:104140002DE9F34F85B08B463B480290002158463D
:1041500009F00AFA7ED00021059809F005FA79D015
:104160005946059808F062FF0546FFF7DDFF044653
:10417000029909F0F9F917D80021584609F0FEF91B
:1041800008D20598FFF7D0FF0446029908F04EFFC9
:10419000834609E00598FFF7C7FF80F000442046FA
:1041A000029908F043FF83465946059808F03EFF00
:1041B0000390039809F078F906460D4A1F4B08F062
:1041C00073FF02460B46CDE900014FF000401C4949
:1041D00009F083F8044636E0E407002014080020C4
:1041E00031000020440800203408002000007A44F8
:1041F00023DBF97E6ABCC43F00408F400E2DB29D88
:10420000EFA7C63F48E17A14AE47C13F6DE7FBA96F
:10421000F1D2CD3FE0000020E4000020E2000020C9
:10422000EE000020EA0000202C000020EC0000201E
:104230002A000020043801403333B33E6ABCB43F47
:10424000976EC23F06E00AF0EBF8804609F070F97D
:10425000824601E04FF0000A504607B0BDE8F08FFB
:1042600070B540F225517248FDF7E2FF002869D091
:1042700040F225516E48FEF705F86D48FDF758FFEE
:10428000C4B201206B49087000206B4908706B496B
:1042900008706B4908706B486B49097844547B2C53
:1042A00003D069480078002805DD67480078401C85
:1042B0006549087002E00020634908706248007890
:1042C0000B283FD10020604908705E48807A7D2825
:1042D00038D100210920FFF779FD5A49497A8842EF
:1042E00030D1584A1179D078FFF709FF5749086053
:1042F000544A117AD079FFF702FF054654480078F6
:1043000001280FD1294651480068FFF719FF51498C
:104310000860514A51494F48006800F068F94D491A
:1043200008600EE0474A117AD079FFF7E8FE494964
:104330000860494A49494748006800F058F945492A
:10434000086000BF002070BD70B540F225514448A0
:10435000FDF76EFF002869D040F225514048FDF777
:1043600091FF3F48FDF7E4FEC4B2012031490870D7
:1043700000203149087031490870314908703148CE
:104380003849097844547B2C03D0364800780028FB
:1043900005DD34480078401C3249087002E00020F6
:1043A000304908702F4800780B283FD100202D4954
:1043B00008702448807A7D2838D100210920FFF731
:1043C00005FD2049497A884230D11E4A1179D078BA
:1043D000FFF795FE1D4908601A4A117AD079FFF758
:1043E0008EFE05461A48007801280FD12946174845
:1043F0000068FFF7A5FE17490860174A17491548D6
:10440000006800F0F4F8134908600EE00D4A117AD4
:10441000D079FFF774FE0F4908600F4A0F490D4825
:10442000006800F0E4F80B49086000BF002070BD90
:10443000003801402F0000202E0000202D00002019
:104440003000002014080020A4000020A800002054
:1044500031000020AC000020920A863F920A86BFFD
:10446000004C0040A50000202DE9F04105460E4615
:1044700014462F463146384609F080F800D23746B8
:104480002146384609F070F800D227463846BDE884
:10449000F0812DE9F04705460027012408E0FE4899
:1044A00050F82410601EFC4A42F82010601CC4B270
:1044B0000A2CF4DBF8484562002408E0F64850F87E
:1044C0002410384608F028FD0746601CC4B20A2CA8
:1044D000F4DBF249384608F0A9FD814608F098FF60
:1044E000804608F069FF06463046BDE8F0872DE9B2
:1044F000F04705460027012408E0E94850F8241059
:10450000601EE74A42F82010601CC4B20A2CF4DB9B
:10451000E3484562002408E0E14850F8241038469A
:1045200008F0FAFC0746601CC4B20A2CF4DBDB4935
:10453000384608F07BFD814608F06AFF804608F0A7
:104540003BFF06463046BDE8F08710B5D54A916876
:10455000106802F0E7FC044608F02EFFD1494860DD
:10456000D14A9168106802F010FD044608F024FF5B
:10457000CD494860CD48007818B1CC48007807286C
:104580000BD1C8494868FFF7B2FFC6494860C64921
:104590004868FFF77EFFC4494860C249C44A48687A
:1045A000C449FFF761FFBF494860BF49C04A486836
:1045B000C049FFF759FFBC49486010BD10B5002441
:1045C000BD480068BD490870BD480088B0F57A7FD5
:1045D00004DA3220FEF7C0F8012402E0C820FEF71A
:1045E000BBF8B648007800B10124204610BD70B574
:1045F00006460D4614462946304608F0B5FF01D25E
:10460000284670BD2146304608F0B8FF01D220464A
:10461000F7E73046F5E703468B4201DA0846704774
:10462000934201DD1046FAE71846F8E72DE9F04F0E
:104630008FB006460C46A34DA34AA449A44800687F
:10464000FFF7D5FFA2490860A24AA349A348006822
:10465000FFF7CDFFA1490860A148007801287DD16E
:10466000A0480E90A246504608F01EFFCDE9080172
:104670000AF0C6FD02460B46CDE90A01A8029A4996
:1046800008F02BFE0746994A994B08F0AEFDCDE99C
:104690000C0108F04DFF8146964A97495046FFF7B6
:1046A000A6FF82460021504608F05EFF1CD09349C9
:1046B000484608F083FC8046314608F085FC0746F2
:1046C000494608F0B3FC774988608C49484608F0B1
:1046D00023FC8046314608F077FC0746494608F03F
:1046E000A5FC7149886003E06E4886606E4886606C
:1046F0005146834808F068FC074608F0D5FECDE92E
:104700000801504608F0D0FE074600224FF08043D3
:104710000AF064F800227B4BCDE9000108F06BFD44
:10472000CDE90401504608F0BFFE07460022764B53
:104730000AF054F84FF00042744BCDE9000108F044
:104740005AFDCDE90201DDE9042308F0ADFCCDE915
:104750000601DDE9082308F048FD00E03AE0002208
:104760006B4BCDE90A0108F09FFCCDE90C0108F084
:10477000DFFE83466749584608F020FC0D900E99ED
:1047800008F022FC8046644908F0C6FB074608F0A2
:104790003FFE6249086085F0004742492A46886822
:1047A0003946FFF724FF3F49886085F000473E49BE
:1047B0002A4688683946FFF71AFF3B49886040F669
:1047C00098024FF4487155480068FFF724FF534999
:1047D00008600DE14248007800283DD100213046B4
:1047E00008F0C2FE02D284F0004400E000BF4C4852
:1047F0000168204608F0E8FB80464FF0804108F051
:1048000015FC0746314608F0DCFB26498860444821
:104810000168204608F0D8FB80464FF0804108F040
:1048200005FC0746314608F077FB1F49886085F094
:1048300000471C492A4688683946FFF7D8FE1949BF
:10484000886085F0004718492A4688683946FFF78E
:10485000CEFE15498860CBE02148007802287DD142
:104860000021304608F080FE02D284F0004400E0CF
:1048700000BF2B480168204608F0A6FB80464FF099
:10488000804108F0D3FB0746314608F09AFB054902
:1048900088602348016845E07C0800200000204132
:1048A000540800203408002044080020C0000020E4
:1048B00000A0D7C500A0D745340122422C0000201B
:1048C0002A000020000060409A99993F9A9999BF68
:1048D000A8000020920A863F920A86BFAC00002002
:1048E00031000020AE271F44976EC23F23DBF97EC4
:1048F0006ABCB43F0AD7A33E0AD7A3BE54E3A53D82
:10490000E5D0E23FD34DF43F000008409318E4BFE8
:10491000022BF93F4C37C93F0080BB44C400002044
:1049200038000020204608F04FFB80464FF08041C1
:1049300008F07CFB0746314608F0EEFAFE49886035
:1049400085F00047FD492A4688683946FFF74FFE43
:10495000FA49886085F00047F74900E007E02A46F9
:1049600088683946FFF743FEF349886040E0F44821
:10497000007803283CD10021304608F0F5FD02D232
:1049800084F0004400E000BFEE480168204608F0D3
:104990001BFB80464FF0804108F048FB074631463C
:1049A00008F00FFBE5498860E6480168204608F0FA
:1049B0000BFB80464FF0804108F038FB074631463C
:1049C00008F0AAFADC49886085F00047DB492A46EE
:1049D00088683946FFF70BFED849886085F00047A4
:1049E000D5492A4688683946FFF701FED2498860D2
:1049F0000FB0BDE8F08F70B5002437E004EB440140
:104A0000D14A02EB4101D1F80200D04908F0B6FDCD
:104A10002BD204EB4401CC4A02EB4101D1F8020055
:104A2000CB4908F0A1FD20D2CA48006860B904EB68
:104A30004400C54901EB40000088C7490860C548EB
:104A40000068401CC349086004EB4400BE4901EB08
:104A500040000188C04800686430814205D204EB00
:104A60004400B94901EB40000588641CBB4800685C
:104A70008442C3DB4FF07A50B9490860B6480068F9
:104A800008F0A3FC0446284608F09FFC0646214691
:104A900002F0AEFA80F00040B2490860A848007801
:104AA000012808D1B04AB149AE480068FFF79FFD20
:104AB000AC4908600AE0A248007838B9AC4AAD4970
:104AC000A8480068FFF793FDA649086070BD2DE96E
:104AD000F04100264FF6FF75002425E004EB44006A
:104AE000994901EB4000008864281CDD04EB440078
:104AF00001EB40000088B0F5C86F14DA761C04EBB7
:104B0000440001EB40000088A8420CDA04EB4400AA
:104B100001EB4000058804EB440001EB4000D0F8B5
:104B2000020095490860641C8C4800688442D5DB0B
:104B300092499148006808F021FD06D290498E48BC
:104B4000006808F03BFA8C4908608E4801688A4882
:104B5000006808F033FA07468B4908F00FFD0AD3C6
:104B6000884801688448006808F028FA07468749A1
:104B700008F0FAFC0ED286480078401CC0B2844986
:104B800008703C280DD1002008707B4800687D49E2
:104B9000086006E000207E4908707748006879497F
:104BA0000860062E12DA7B480088282804DA794843
:104BB0000088401C774908807648008828286FDBE9
:104BC0000020674908606749086069E00020714972
:104BD00008805B480078012838D16F496648006832
:104BE00008F0CCFC05D265496348006808F0BCFCBD
:104BF0000BD36A496048006808F0C0FC15D26849C8
:104C00005D48006808F0B0FC0FD2B5F5FA7F0CDA09
:104C100064485349086000215A48006802F0CEFAFF
:104C200080F000404F4908603AE0284608F0CDFB8C
:104C300007465D4902F0F7FB4949086000215148E9
:104C4000006802F0BBFA4749086029E057494A4822
:104C5000006808F093FC05D355494748006808F000
:104C600083FC0DD2B5F5C87F0ADD4648016851487E
:104C700008F0AAF93B4908600020394908600FE0B4
:104C8000284608F0A2FB0746474902F0CCFB34490E
:104C9000086000213B48006802F090FA3149086042
:104CA000454A46492F480068FFF7A1FC2D49086096
:104CB000434A44492A480068FFF799FC284908609C
:104CC000BDE8F0812DE9F04F85B000240026A14613
:104CD00000254FF4AF70049019480078012803D1E3
:104CE0004FF4C870049006E015480078032802D1FC
:104CF0004FF4FA7004900024AFE004EB4401124A30
:104D000002EB4101D1F802002F4908F037FC0AD329
:104D100004EB44010C4A02EB4101D1F802002349A3
:104D200008F022FC73D204EB4400074901EB400079
:104D3000008800286BDD49E044080020340800208A
:104D40003100002038000020AE12002000009A42FE
:104D500000009E420C0100200801002044000020B9
:104D6000A8000020AC000020DB0F493FDB0F49BF4B
:104D70007CD9203F7CD920BFFC00002000003443B8
:104D80000000B4430001002000002041000020C1C9
:104D900004010020FA00002000007041000034C32C
:104DA000000070C1CDCC4CBE0000C843000048429A
:104DB000000048C2211FF4BC920A063F920A06BFB7
:104DC000CDCCCC3ECDCCCCBE00009B4304EB44000C
:104DD00001EB40000188049881423DDA701CC6B2A4
:104DE00004EB4401FE4A02EB4101D1F80200FD4907
:104DF00008F0BAFB0CD204EB4400F94A02EB400085
:104E0000D0F80210484608F087F881461AE023E0FF
:104E100004EB4401F24A02EB4101D1F80200F249ED
:104E200008F0ACFB0ED204EB4401ED4A02EB410169
:104E3000D1F80200ED4908F0C1F80746494608F0EC
:104E40006BF8814604EB4400E54901EB4000008823
:104E5000C82801DA681CC5B2641CE54800688442B1
:104E6000FFF64BAF082E20DAE248006808F01CFB82
:104E70000746E14AE14B08F017F9CDE9000108F0D7
:104E800057FBDC498246086008F00EFB4FF03332D6
:104E9000DB4BCDE9020108F033FB02D8D948D549F4
:104EA00008600020D849086087E0D84800780128C9
:104EB00031D1082D06DDD648CE4908600020D24900
:104EC00008607AE0CB48006808F0EEFA0746CA4A64
:104ED000CA4B08F08AF9CDE9000108F029FBC54961
:104EE0000860039008F0E0FA82464FF03332C94B75
:104EF00008F0EEFA02D8C848BE49086000214846CA
:104F000008F03CFB03D2C548BF49086055E0C448DF
:104F1000BD49086051E0082D06DDBD48B54908606F
:104F20000020B949086048E0B248006808F0BCFABF
:104F30000746B14AB14B08F058F9824608F0F8FA32
:104F4000AC490860019008F0AFFA4FF03332B14B32
:104F5000CDE9020108F0BCFA02D8AF48A5490860C3
:104F60000021484608F00AFB12D2A848007818B978
:104F7000AC48A549086020E0A4480078022803D185
:104F8000A848A149086018E0A6489F49086014E0B5
:104F90009E48007820B94FF07E509B4908600CE095
:104FA0009A480078022804D14FF07E509649086054
:104FB00003E04FF07E50944908609348006880F009
:104FC00000409149086005B0BDE8F08F2DE9FC5F15
:104FD00064244FF4AF7001904FF4FA62511092487C
:104FE0000068FFF718FB904908604FF4FA6251100F
:104FF0008E480068FFF70FFB8C4908600846006880
:10500000A0F2DC5988480068A0F2DC5A6042814571
:1050100003DDA14501DA4FF000096042824503DD5E
:10502000A24501DA4FF0000A484608F0C5F9714977
:105030000860CAF1000008F0BFF9734908606D48C4
:10504000006808F031FA0746794A7A4B08F0D3F83D
:10505000054608F06DFA674908606C480078012839
:1050600012D175496848006807F0AEFF834608F022
:105070001BFA05460022714B08F02FF9074608F08D
:1050800057FA6149086016E04FF080415E480068B9
:1050900007F09AFF6A49009007F096FF834608F0F0
:1050A00003FA05460022654B08F017F9074608F099
:1050B0003FFA5549086063494E48006807F0B6FF5B
:1050C0004C49086060480078002808DD002008602E
:1050D0004D4908605C480078401E5B490870BDE897
:1050E000FC9F2DE9F05F142458480068C0F1800946
:1050F00057480068C0F1800A6042814503DDA14540
:1051000001DA4FF000096042824503DDA24501DA71
:105110004FF0000A484608F04FF905464FF0864127
:105120004C48006807F082FF0646294607F04CFF0E
:105130003049086035480078012812D1504608F0FF
:105140003BF906464FF086414348006807F06EFF82
:1051500080F000453146284607F036FF2A490860AE
:1051600028E000212348006808F008FA12D85046C9
:1051700008F022F906464FF086413748006807F0EC
:1051800055FF80F000453146284607F01DFF1E49B7
:1051900008600FE0504608F00FF905464FF08641D1
:1051A0002D48006807F042FF0646294607F00CFF2D
:1051B00015490860294800680B287DD128480078E7
:1051C000401CC0B226490870142876D1002023491B
:1051D00008602349087023491E48006844E0000025
:1051E000AE1200200000484200009B430000B44380
:1051F00044000020A80000209A9999999999B93FF4
:105200003333D33F9A99993EAC00002031000020FF
:105210009A9999BE3333C33F9A99193E7CD920BFDE
:105220007CD9203F000080BF780200207C02002053
:10523000CDCCCCCCCCCCF43FDB0FC93E00E07540EC
:10524000DB0F493F00007A44100100208C00002051
:1052500090000020B8000020BC0000209800002032
:10526000F70000200000C84107F056FEFA49054645
:105270000860FA4908F082F902D2F848F649086055
:10528000F748007801285AD0F648006808F00CF971
:105290000746F54AF54B07F007FF054608F048F9C1
:1052A000F049834608604FF07E5108F067F946D216
:1052B0004FF07E50EB4901E002E03BE008603EE049
:1052C000EB4800680C2836D1EA480078401CC0B290
:1052D000E8490870142832D10020E5490860E54902
:1052E0000870E549DC48006807F068FEDA490546C1
:1052F0000860E24908F038F902D2E048D64908606F
:10530000D748007801281AD0D648006808F0CCF8B1
:105310000546D54AD54B07F068FF074608F008F95F
:10532000D04983460860D64908F01EF907D2D44810
:10533000CC49086003E00020CE4908700870D149CC
:10534000D148006807F072FECF490860CF48006876
:1053500080F00040CD490860BDE8F09F10B5CC4812
:10536000007828B90020C8490860C849086068E08A
:10537000C7480078012807D1B7480068C2490860CB
:105380000020C24908605CE0C1480078022807D1CB
:10539000B1480068BC490860BE48BC49086050E09C
:1053A000BB480078032806D10020B7490860B948F7
:1053B000B649086045E0B6480078042809D1A648F7
:1053C000006880F00040B0490860B248AF4908600A
:1053D00037E0AF480078052809D19F48006880F081
:1053E0000040A94908600020A849086029E0A848B1
:1053F0000078062809D19848006880F00040A2494A
:105400000860A548A14908601BE0A148007807286A
:1054100006D100209C4908609F489C49086010E024
:105420009B480078082807D18B4800689649086097
:1054300099489649086004E0002093490860934920
:1054400008608748007801280AD181078F480068E2
:1054500007F0BAFD0446914907F0E8FD8B49086062
:1054600088498948006807F0E1FD87490860874856
:10547000006880F000408549086010BD2DE9FF47B5
:105480008246BAF1010F02D106F0B6FF4BE144218A
:10549000D02006F088FC04464321D02006F083FC8F
:1054A00004EB002000B27E4908804621D02006F09F
:1054B0007AFC04464521D02006F075FC04EB002060
:1054C00000B2784908804821D02006F06CFC0446E0
:1054D0004721D02006F067FC04EB002000B272499F
:1054E00008803C21D02006F05EFC04463B21D02001
:1054F00006F059FC04EB002000B26C4908803E2104
:10550000D02006F050FC04463D21D02006F04BFC94
:1055100004EB002000B2664908804021D02006F04C
:1055200042FC04463F21D02006F03DFC04EB002065
:1055300000B2604908800846B0F9000007F04AFF51
:10554000CDE900015A48B0F9000007F043FF0646D4
:10555000DDE9002309F074F80022574BCDE9020180
:1055600007F049FE04464FF0C042544B07F0B5FE29
:10557000804607F07AFF00B2514908804D48B0F9E3
:10558000000007F027FFCDE900014848B0F900000E
:1055900007F020FF0646DDE9002309F051F88046B8
:1055A0000022454B07F027FE04464FF0C042434B14
:1055B00007F093FECDE9020107F057FF00B2414921
:1055C00008803748B0F9000007F004FF04460022C5
:1055D0003D4B07F082FE064607F047FF00B2304918
:1055E00008803048B0F9000007F0F4FE04460022BD
:1055F000354B07F072FE064607F037FF00B2294927
:105600000880BAF1020F65D12548B0F9000007F013
:10561000D3FE04462A48B0F9000007F0CDFE054647
:10562000214607F041F980F00040284908601D48F4
:10563000B0F9000007F0C0FE04462248B0F90000AF
:1056400007F0BAFE0546214607F06EFA80F00040EA
:105650001F49086067E03DE0B800002000004844B2
:1056600031000020BC0000209A9999999999B93F7E
:1056700098000020F80000200000C84100005243BC
:105680007CD9203E00007A44A8000020AC00002015
:1056900015010020DB0FC93FDB0FC9BF000020410F
:1056A000EA000020EE000020EC000020E4000020D2
:1056B000E0000020E200002000806640FB2109405D
:1056C000E6000020E800002000605040F8020020C2
:1056D000FC020020BAF1030F25D1E148B0F9000027
:1056E00007F06AFE0446DF48B0F9000007F064FEE8
:1056F0000546214607F0EFF980F00040DA490860DE
:10570000DA48B0F9000007F057FE0446D848B0F96F
:10571000000007F051FE0546214607F059FB80F0D6
:105720000040D4490860BDE8FF872DE9F04104201E
:10573000FDF7CBFFD04908600820FDF7C6FFCE4932
:105740004860CE48007890B1012804D002281AD0D1
:10575000032830D123E0C849086807F02DFE05462C
:10576000C5494968484207F027FE064623E0C2497A
:10577000086807F021FE0546BF494968484207F01E
:105780001BFE064617E0BC49086807F015FE0546F3
:10579000B9494968484207F00FFE06460BE0B64992
:1057A000086807F009FE0546B3494968484207F012
:1057B00003FE064600BF00BFB149284607F004FCBF
:1057C0000746B0480168384607F0FEFB0446AE497C
:1057D00007F02CFCAD490860A949304607F0F4FBFE
:1057E0000746A8480168384607F0EEFB0446A6497C
:1057F00007F01CFCA6490860BDE8F08170B50121E6
:10580000A448FCF740FB002873D00121A148FCF715
:105810004BFBFFF78AFFFCF70CFF9F480078A8B10D
:105820009E480078401CC0B29C4908700A2804D1E8
:10583000002008709849087008E0984800780A2805
:1058400004DD002095490870934908709448007859
:10585000401CC0B292490870142804D1002091491C
:1058600008708F4908709048007830BB8F480078E6
:10587000401CC0B28D4908700A2809D10220FFF7E8
:10588000FDFDFEF7BDFAFEF72DFC002087490870EC
:1058900087480078012802D1FFF760FD3EE0854887
:1058A0000078012802D1FFF71CFC37E0824800781D
:1058B000012833D1FFF78AFB30E07B4800780128CC
:1058C00002D1FFF7FFF929E077480078022802D1DA
:1058D000FFF7FDF822E074480078032802D1FFF7B3
:1058E0008AF81BE070480078042803D103F0ADF873
:1058F00014E038E071480078401CC0B26F4908706D
:10590000042804D10020087003F073FA06E06B4805
:105910000078042802DD00206849087068480168A2
:1059200068480068FEF782FEFEF748FE10B9FEF7F1
:105930000CFE08E00020554948605549486040F297
:10594000DC50614908605249486807F061FD06462D
:105950004E48406880F00045284607F059FD04464F
:105960003146FDF776FA002070BD4448007818B142
:1059700042480078012806D15448424908605448FA
:105980005449086010E03D480078022806D152488A
:105990003C49086051484F49086005E05048394982
:1059A000086050484B490860704710B500204449D2
:1059B000086002F0F1FC4C480088C8280FDA4B4917
:1059C0004048006807F0FAFA3E4904460860484932
:1059D00007F0CAFD43D246483A4908603FE04248D2
:1059E0000088B0F5877F15DD3F48008840F2EE2142
:1059F00088420FDA3D493348006807F08DFA314993
:105A0000044608603B4907F0B9FD28D239482D49C2
:105A1000086024E000212B48006807F0AFFD0FD29A
:105A200035492848006807F0C9FA26490446086045
:105A3000002107F099FD12D20020224908600EE0F3
:105A40002D492048006807F067FA1E49044608609F
:105A5000002107F093FD02D200201A49086010BD12
:105A6000EA000020E6000020F8020020EE000020FE
:105A7000E8000020FC020020D800002031000020B7
:105A800000004843340000200000C34434080020D4
:105A900044080020000C00402900002028000020BD
:105AA000D500002041000020C0000020D4000020CC
:105AB0002E0000202D00002030000020F6000020E5
:105AC000AC000020A8000020C4000020D589573E6B
:105AD0007D3F353E38000020A3540A3E713D0A3E0A
