:020000040800F2
:10000000380C002045010008191C00081B1C0008C2
:100010001D1C00081F1C0008211C00080000000017
:10002000000000000000000000000000231C000889
:10003000251C000800000000271C0008291C0008DF
:100040005F0100085F0100085F0100085F01000810
:100050005F0100085F0100085F0100085F01000800
:100060005F0100085F0100085F0100085F010008F0
:100070005F0100085F0100085F0100085F010008E0
:100080005F0100085F0100085F0100085F010008D0
:100090005F0100085F0100085F0100085F010008C0
:1000A0005F0100085F0100085F0100085F010008B0
:1000B0005F0100085F0100087B2B00085F0100085A
:1000C0005F0100085F0100085F0100085F01000890
:1000D0005F010008092E0008D72E000869440008B7
:1000E000394100085F0100085F0100085F01000856
:1000F000932B00085F0100085F0100085F01000802
:100100005F0100085F010008FF3700085F01000879
:10011000952E00085F0100085F0100085F010008DC
:100120005F0100085F0100085F0100085F0100082F
:10013000DFF80CD007F092FF00480047211B0008B1
:10014000380C00200648804706480047FEE7FEE7D7
:10015000FEE7FEE7FEE7FEE7FEE7FEE7FEE7FEE777
:1001600009020008310100080CB500224C48009239
:100170000192016841F4803101604FF4A06301688D
:1001800001F4003101910099491C0091019911B9C4
:1001900000999942F3D10168890333D50121019176
:1001A00040490A6842F010020A600A6822F003021D
:1001B0000A600A6842F002020A60416841604168D0
:1001C0004160416841F480614160416821F47C11E3
:1001D0004160416841F4E8114160016841F080717B
:1001E000016001688901FCD5416821F0030141608B
:1001F000416841F0020141604168C1F38101022977
:10020000FAD10CBD01920CBD254810B5016841F032
:10021000010101604168244A114041600168234A9C
:1002200011400160016821F480210160416821F4DE
:10023000FE0141604FF41F018160FFF795FF1C49EB
:100240004FF00060086010BD154A10B55068194B9A
:1002500010F00C01184803D0042901D0082901D05E
:10026000036012E05168536801F470114FF002040A
:1002700013F4803F04EB914102D053689B0301D5F6
:100280000E4B00E00B4B5943016051680A4AC1F321
:100290000311121D515C0268CA40026010BD0000CB
:1002A00000100240002002400000FFF8FFFFF6FEB1
:1002B00008ED00E000127A000000002000093D0077
:1002C0002849084328490860704730B50F23C27891
:1002D00001780125F2B1244A126801F1E02102F40B
:1002E000E062C2F5E062120AC2F10404D34042782F
:1002F000A24084781C401443220181F80024007835
:1003000000F01F018D404009800000F1E020C0F89E
:10031000005130BD01F01F0085404809800000F108
:10032000E020C0F8805130BD104A114001430E4812
:10033000001F016070470C4A121D0029116801D08E
:10034000014300E08143116070474FF0E021042831
:10035000086903D020F004000861704740F00400F1
:10036000FAE700000000FA050CED00E080FFFF1F37
:10037000C54910B5884202D1012144150AE0C3499C
:10038000884202D10121041504E0C14988420AD102
:100390000121CC03204600F048FC2046BDE8104077
:1003A000002100F042BC10BD10B54268B94B0C7979
:1003B0001A400B6842EA0422134343608268B64B3A
:1003C0001A40D1E9024323434C7942EA44021343E1
:1003D0008360C26A097C22F47002491EC9B242EAF3
:1003E0000151C16210BD0021016001714171816044
:1003F000C1600121017470470029816802D041F079
:10040000010101E021F0010181607047002981684C
:1004100002D041F4807101E021F480718160704765
:10042000002A4268C9B201D00A4300E08A43426010
:100430007047816841F008018160704701460020E3
:100440008968090700D501207047816841F00401DF
:1004500081607047014600208968490700D5012066
:1004600070470029816802D041F4A00101E021F425
:10047000A00181607047014600208968490200D5CB
:10048000012070474268491E22F4604242EA41312D
:10049000416070470029416802D041F4006101E0E9
:1004A00021F400614160704770B5072609290AD917
:1004B000C568A1F10A0404EB4404A640B543A34077
:1004C0001D43C56007E0056901EB4104A640B54343
:1004D000A3401D4305611F23072A09D2446B521E06
:1004E00002EB820293409C4391400C43446370BDF5
:1004F0000D2A09D2046BD21F02EB820293409C4367
:1005000091400C43046370BDC46A0D3A02EB820251
:1005100093409C4391400C43C46270BD00298168A4
:1005200002D041F4801101E021F480118160704714
:10053000C06C80B2704754484C3000687047002946
:10054000416802D041F4806101E021F480614160A2
:1005500070470029416802D041F4805101E021F444
:10056000805141607047826822F4E0420A43826011
:1005700070470029816802D041F4004101E021F474
:100580000041816070470029816802D041F4021166
:1005900001E021F402118160704701460020896862
:1005A000890200D50120704770B5072609290AD9AC
:1005B000C568A1F10A0404EB4404A640B543A34076
:1005C0001D43C56007E0056901EB4104A640B54342
:1005D000A3401D430561836BC3F30154121B921C9E
:1005E00002EB82021F249440A34391400B43836398
:1005F00070BD826B491E22F4401242EA01518163B0
:10060000704708B508440090026008BD08B508446A
:1006100028300090006880B208BD42681F4B1A4025
:100620000A4342607047416282627047426822F02A
:100630001F020A43426070471349083100280868C6
:1006400002D040F4000001E020F400000860704790
:100650000246002012680A4200D001207047C943B8
:100660000160704710B50246002054680B0AC9B2F9
:100670000C401168194202D0002C00D0012010BD9E
:100680006FEA1121016070470024014000280140F9
:10069000003C0140FFFEF0FFFDF7F1FFFFFD3FFFD3
:1006A000374900200860091D0860091D0860091D00
:1006B00008603349334814310860704730B5304A18
:1006C0008379016853B313688B431360111D0B6862
:1006D0000468A3430B60017911440B680468234349
:1006E0000B60274B083319680468A14319601C1D6F
:1006F00021680568A94321604179102905D011447A
:100700000A68006802430A6030BD19680268114334
:100710001960216800680143216030BD00791044F0
:1007200002688A43026030BD0021016001710C2221
:10073000427181717047124910310A6802430A60A0
:10074000704701460E4A0020143212680A4200D057
:10075000012070470A49143108607047084A014671
:1007600000201268064B0A4014331B680B4202D06B
:10077000002A00D0012070470149143108607047F9
:1007800000040140FFFF0F008F4910B5884206D1D9
:100790000121042000F049FA002104203BE08B49AC
:1007A000884206D10121082000F03FFA00210820EC
:1007B00031E08749884206D10121102000F035FA46
:1007C0000021102027E08349884206D10121202002
:1007D00000F02BFA002120201DE07F49884206D13D
:1007E0000121402000F021FA0021402013E07B4944
:1007F000884206D10121802000F017FA00218020D4
:1008000009E0774988420AD184150121204600F089
:100810000CFA00212046BDE8104000F006BA10BDD9
:1008200010B50121084600F000FA0021BDE8104093
:10083000012000F0FAB9F0B5CC78002204F00F03E3
:10084000E40601D58C7823430C784FF00F0C14F09C
:10085000FF0F4FF0010E1BD005680E880EFA02F450
:100860002640A64210D196000CFA06F725EA0707A3
:1008700003FA06F5CE783D43282E02D0482E02D04A
:1008800002E0446100E00461521C082AE5D30560DF
:100890000A88FF2A1CD94468002202F108060EFAD1
:1008A00006F50E882E40AE420ED196000CFA06F7E1
:1008B000BC4303FA06F7CE783C43282E00D14561AD
:1008C000CE78482E00D10561521C082AE5D3446039
:1008D000F0BD4FF6FF710180022181700421C170CB
:1008E00070470246002092680A4200D001207047FB
:1008F000806880B2704702460020D2680A4200D069
:1009000001207047C06880B2704701617047416143
:1009100070470AB10161704741617047C16070471B
:1009200041F48032826181618261816980697047AE
:100930002C4B10B51A684FF68074224042EA001022
:100940000843186010BD2849C8617047F0B5254CB0
:10095000002801DAE36900E06368450D2E0185B2E5
:10096000C0F30157B540C0F30342032F05D0C602C0
:100970000AD503269640B34307E023F0706263680C
:1009800023F07063636002E0AB4343F0706201B137
:100990002A43002801DAE261F0BD6260F0BD10B5C3
:1009A0008A0721F003040F49120F21440F238C689A
:1009B00093409C438C608B68904003438B6010BDD8
:1009C0000949C1F8DC00704700080140000C0140F3
:1009D000001001400014014000180140001C0140BB
:1009E000002001400000014000002042A5480168AD
:1009F00041F0010101604168A34A11404160016872
:100A0000A24A11400160016821F48021016041681F
:100A100021F4FE0141604FF41F0181607047994944
:100A20000A6822F480320A600A6822F480220A608E
:100A3000B0F5803F07D0B0F5802F03D1086840F4AF
:100A4000A02008607047086840F48030F9E703464A
:100A5000002059098B4A01290AD002290AD0516A7B
:100A600003F01F02012393400B4200D00120704786
:100A70001168F5E7116AF3E718B500204FF4A06498
:100A800000903120FFF7E3FF0099491C0091A1423B
:100A900001D00028F5D03120FFF7D9FF002800D081
:100AA000012018BD774A116821F0F80141EAC00021
:100AB00010607047764908607047724B5A68084367
:100AC00022F47C12104358607047714908667047E1
:100AD0006C4A516821F00301014351607047694835
:100AE000406800F00C007047664A516821F0F00140
:100AF000014351607047634A516821F4E06101434A
:100B0000516070475F4A516821F4605141EAC0006A
:100B1000506070475B4A0029517A01D0014300E0E0
:100B20008143517270475A49C1F8D8007047554AFD
:100B3000516821F4404101435160704751490022FE
:100B400081F8202081F82020012802D0042802D139
:100B5000052081F8200070474E49086070474949D8
:100B60000A6A02430A6270474A494439086070477A
:100B700030B5444A5168484B11F00C0103D00429A8
:100B800001D0082901D0036012E05168536801F4D4
:100B900070114FF0020413F4803F04EB914102D036
:100BA00053689B0301D53D4B00E03B4B594301602B
:100BB00051680F2303EA1111394B5C5C0168E14075
:100BC00041605468072505EA14241C5D21FA04F4E9
:100BD0008460546805EAD4241B5DD940C160526822
:100BE000032303EA92322E4B1B1F9A5CB1FBF2F1F6
:100BF000016130BD234A0029516901D0014300E061
:100C00008143516170471F4A0029916901D0014316
:100C100000E08143916170471A4A0029D16901D0EF
:100C2000014300E08143D1617047164A0029D16831
:100C300001D0014300E08143D1607047114A00298F
:100C4000116901D0014300E08143116170471149EE
:100C50004039086070470E49C86470470949C87137
:100C600070470848416A41F0807141627047054A07
:100C70000146002092680A4200D0012070470149D5
:100C800088727047001002400000FFF8FFFFF6FE78
:100C9000000042428004424200127A0000093D00F6
:100CA00018000020F94910B5884202D10121C4146E
:100CB00086E0B0F1804F09D0F54988420DD101217D
:100CC0000220FFF7BBFF0021022064E0012108465B
:100CD000FFF7B4FF002101205DE0EE49884206D114
:100CE00001210420FFF7AAFF0021042053E0EA4974
:100CF000884206D101210820FFF7A0FF002108202B
:100D000049E0E649884206D101211020FFF796FF0D
:100D1000002110203FE0E249884206D10121202035
:100D2000FFF78CFF0021202035E0DE49884202D108
:100D30000121441444E0DC49884202D10121CC0461
:100D40003EE0DA49884202D101210C0538E0D84959
:100D5000884202D101214C0532E0D649884206D1B1
:100D600001214020FFF76AFF0021402013E0D24913
:100D7000884206D101218020FFF760FF00218020FA
:100D800009E0CE4988420AD1841501212046FFF7A7
:100D900055FF00212046BDE81040FFF74FBFC8496E
:100DA000884202D101210C040AE0C649884202D1DE
:100DB00001214C0404E0C44988420AD101218C0479
:100DC0002046FFF732FF2046BDE810400021FFF724
:100DD0002CBF10BD30B50288AC4CB24DA0420DD036
:100DE000A8420BD0B0F1804F08D0A94B984205D053
:100DF000A84B984202D0A84B984203D122F070032E
:100E00004A881A43A54B984206D0A54B984203D076
:100E100022F44073CA881A4302808A8882850A882D
:100E20000285A0420AD0A84208D0A54A904205D027
:100E3000A44A904202D0A44A904201D1097A018684
:100E40000121818230BD30B5028C22F00102028482
:100E5000028C8388048B22F0020224F073050C8834
:100E60002C430D8915434A882A43884DA8420BD04C
:100E70008C4DA84208D0924DA84205D0914DA84271
:100E800002D0914DA8420DD122F008054A8923F4E1
:100E900040732A4322F004058A882A438D891D4322
:100EA000CB892B4383800483C9888186028430BD2B
:100EB00070B5028C22F010020284028C8388048BAD
:100EC0000D8824F4E6464FF6FF7404EA0525354301
:100ED0000E8922F0200204EA061616434A8804EA24
:100EE00002123243694EB04202D06E4EB04215D16A
:100EF00022F080064A8923F4406304EA0212324356
:100F000022F040068A8804EA021232438E8904EAFB
:100F100086061E43CB8904EA83033343838005831B
:100F2000C9880187028470BD70B5028C22F480727A
:100F30000284028C8388848B0D8824F073042543FB
:100F40000E894FF6FF7422F4007204EA0626164357
:100F50004A8804EA022232434C4EB04202D0514E3B
:100F6000B04215D122F400664A8923F4405304EAC2
:100F70000222324322F480668A8804EA0222324343
:100F80008E8904EA06161E43CB8904EA0313334311
:100F900083808583C9888187028470BD70B5028C87
:100FA00022F480520284058C8288838B0C8823F47F
:100FB000E6464FF6FF7303EA0424344325F4005653
:100FC0000D8903EA053535434E8803EA06362E437C
:100FD0002E4DA84202D0334DA84205D122F48045BF
:100FE0008A8903EA82122A4382808483C988A0F80E
:100FF0004010068470BD828B22F440628283828B13
:101000004FF6FF7303EA01210A4382837047828B04
:1010100022F00C028283828B0A4382837047028B08
:1010200022F440620283028B4FF6FF7303EA012130
:101030000A4302837047F0B5048C24F01004048442
:10104000078B048C4FF6FF7527F4734705EA0333CB
:101050003B4305EA02221A430C4B05EA011698426B
:101060000ED0104B98420BD0B0F1804F08D0084BF7
:10107000984205D0074B984202D0074B984225D1A1
:1010800024F02001314341F0100124E0002C014004
:101090000004004000080040000C00400010004028
:1010A0000014004000340140004C01400050014059
:1010B0000054014000180040001C00400020004087
:1010C00000400140004401400048014024F0A003DA
:1010D0000B4343F0100102830184F0BD028B22F028
:1010E0000C020283028B0A430283704770B5048CA2
:1010F00024F001040484058B048C4FF6FF7606EA85
:101100000313134325F0F305F84A2B4390420ED006
:10111000F74A90420BD0B0F1804F08D0F54A904288
:1011200005D0F54A904202D0F44A904202D124F010
:10113000020201E024F00A020A4342F001010383A3
:10114000018470BD2DE9F84F0D4604460888E74F2D
:10115000DFF89CC3DFF89C83DFF89C934988AA885A
:101160002B894FF0804A48B304282FD04FF6FF76E2
:101170000828934632D0208C9E4620F4805020844C
:10118000A38B208C06EA0132009223F4734306EA13
:101190000B221A4306EA0E331343BC420AD06445BD
:1011A00008D0544506D0444504D04C4502D0D34A1B
:1011B000944242D120F40050009940E02046FFF7CD
:1011C00095FFE9882046BDE8F84F87E72046FFF7FE
:1011D00032FFE9882046BDE8F84F20E7208C20F454
:1011E00080702084B4F81CE0208C06EA031306EA21
:1011F00001222EF0F30E43EA0B0343EA0E030092A2
:10120000BC420AD0644508D0544506D0444504D0B9
:101210004C4502D0B94A944203D120F400700099A1
:1012200001E020F42060084340F48070A383208410
:10123000E9882046BDE8F84FE9E620F4024008437B
:1012400040F48050A3832084E9882046BDE8F84F0D
:10125000D1E62DE9F0410C460026498807460125D4
:1012600001B90226A288012A00D1022520882389FB
:101270000028384610D0FFF7DEFEE1883846FFF739
:10128000CEFE23892A4631463846FFF72FFFE188F4
:101290003846BDE8F04121E7FFF728FFE1883846EE
:1012A000FFF71CFF23892A4631463846FFF7C3FE65
:1012B000E1883846BDE8F041B1E610B50A884B88B0
:1012C000CC881A438B8823431A430B891A434B89D2
:1012D00089891A430A43A0F8442010BD4FF6FF71D4
:1012E000818000210180C18041800172704700210E
:1012F000018041808180C180018141818181C181E2
:10130000704700210180418001228280C1800181DB
:1013100070470021018041808180C180018141812D
:10132000818170470029018802D041F0010101E06C
:1013300021F0010101807047002930F8441F02D0DC
:1013400041F4004101E0C1F30E0101807047002A21
:10135000828901D00A4300E08A43828170478182FA
:1013600070471143A0F848107047002A828901D0C5
:101370000A4300E08A4382817047018921F0070116
:1013800001817047028922F070020A43028170478E
:1013900000B50346FFF7F6FF188940F007001881F3
:1013A00000BD70B516460D46602904464FF0010297
:1013B00031460AD0FFF79AFE29462046FFF7E2FFA2
:1013C000208940F00700208170BDFFF734FEF3E76D
:1013D00030B504894FF6FF7505EA03231343E4B2E1
:1013E0000B432343038130BD10B50446FFF7F0FFE4
:1013F000208940F07700208110BD10B50446FFF72A
:10140000E7FF208940F48040208110BD0185828261
:101410007047028822F070020A430280704770B55C
:101420000589048B068C25F007050D434FF6FC411A
:101430000C4040F201110C434FF6FF7101EA031119
:1014400026F022061143314305810483018470BDD7
:10145000028B22F070020A4302837047028B4FF620
:10146000FF7322F4E04203EA012111430183704734
:10147000828B22F070020A4382837047828B4FF680
:10148000FF7322F4E04203EA012111438183704794
:101490000029018802D041F0800101E021F08001A3
:1014A000018070470029818802D041F0040101E0E9
:1014B00021F00401818070470029818802D041F029
:1014C000080101E021F0080181807047002981882E
:1014D00002D041F0010101E021F00101818070475B
:1014E000028B22F008020A4302837047002C01405D
:1014F000003401400004004000080040000C00409F
:10150000028B4FF6FF7322F4006203EA01211143BC
:101510000183EAE7828B22F008020A438283E4E730
:10152000828B4FF6FF7322F4006203EA012111431C
:101530008183DAE7028B22F004020A430283D4E7B4
:10154000028B4FF6FF7322F4806203EA01211143FC
:101550000183CAE7828B22F004020A438283C4E734
:10156000828B4FF6FF7322F4806203EA012111435C
:101570008183BAE7028B22F080020A430283B4E738
:10158000028B4FF6FF73C2F30E0203EA01211143EF
:101590000183AAE7828B22F080020A438283A4E7B8
:1015A000828B4FF6FF73C2F30E0203EA012111434F
:1015B00081839AE7028C22F002020A43028494E7B4
:1015C000028C22F008020A4302848EE7028C4FF656
:1015D000FF7322F0200203EA01111143018484E722
:1015E000028C4FF6FF7322F0800203EA01111143CF
:1015F00001847AE7028C4FF6FF7322F4007203EA4B
:1016000001211143018470E7028C4FF6FF7322F42D
:10161000006203EA01211143018466E7028C4FF660
:10162000FF7322F4005203EA0131114301845CE7A5
:1016300010B50123048C8B409C430484038C8A40A6
:101640001343038410BD10B50423048C8B409C43CA
:101650000484038C8A401343038410BD30B50124F5
:10166000058C00F118038C40A543058489B1082935
:101670000FD0091FC1F34E001844016821F4E04166
:10168000016001684FF6FF7303EA02221143016013
:1016900030BD03EB5100016821F070010160016869
:1016A000F4E70029018802D041F0020101E021F0B5
:1016B0000201018019E70029018802D041F00401EC
:1016C00001E021F0040101800FE70029818802D0A8
:1016D00041F0800101E021F08001818005E702886E
:1016E00022F00802028002880A430280FDE6828816
:1016F00022F07002828082880A438280F5E60289A5
:1017000022F00702028102890A430281EDE6028982
:1017100022F08002028102890A430281E5E6818487
:10172000E3E68185E1E68186DFE60187DDE6818704
:10173000DBE6A0F84010D8E6028822F4407202806E
:1017400002880A430280D0E6808ECEE6008FCCE687
:10175000808FCAE6B0F84000C7E6808CC5E6008DF1
:10176000C3E602460020128A0A4200D00120BCE6ED
:10177000C9430182B9E602460020138A92890B42CE
:1017800002EA010202D0002A00D00120ADE6C943DE
:101790000182AAE6C44910B588420AD101218C030E
:1017A0002046FFF742FA2046BDE810400021FFF72F
:1017B0003CBABE49884202D101214C0410E0BC4928
:1017C000884202D101218C040AE0BA49884202D140
:1017D0000121CC0404E0B84988420AD101210C055A
:1017E0002046FFF72BFA2046BDE810400021FFF706
:1017F00025BA10BD30B50446008A85B00D464CF6BA
:10180000FF710840E98801432182A0894EF6F31157
:101810000840A9882A8911436A8902431143A1819A
:10182000A08A4FF6FF410840A9890143A18268467A
:10183000FFF79EF99C48844201D1039800E002988A
:10184000A189090400EBC00101EB0010296801D552
:10185000490000E08900B0FBF1F06422B0FBF2F136
:1018600009010B096FF018056B4300EB8300A38996
:101870001D044FF0320306D503EBC000B0FBF2F0BD
:1018800000F0070005E003EB0010B0FBF2F000F001
:101890000F000843208105B030BD4FF416510160A0
:1018A00000218180C18001810C22428181817047A9
:1018B00010B5028A4FF2FF031A400B884C8823436D
:1018C0008C88C9880C4323431343038210BD002135
:1018D000018041808180C18070470029818902D0C8
:1018E00041F4005101E021F400518181704710B5AD
:1018F000C1F3421301F01F040121A140012B07D0C5
:10190000022B07D01430002A026805D00A4304E0F5
:101910000C30F8E71030F6E78A43026010BD002A69
:10192000828A01D00A4300E08A4382827047028A99
:1019300022F00F020282028A0A43028270478289E1
:1019400022F40062828182890A43828170470029E1
:10195000818902D041F0020101E021F00201818180
:101960007047028A22F020020282028A0A4302821F
:1019700070470029018A02D041F4804101E021F43E
:10198000804101827047C1F30801818070478088DF
:10199000C0F308007047818941F0010181817047DF
:1019A000028BD2B20283028B42EA0121018370478B
:1019B000028B02F47F420283028B0A430283704748
:1019C0000029818A02D041F0200101E021F02001AC
:1019D000818270470029818A02D041F0100101E024
:1019E00021F01001818270470029818A02D041F0E4
:1019F000080101E021F008018182704700298189F6
:101A000002D041F4004101E0C1F30E018181704731
:101A10000029818A02D041F4006101E021F40061D3
:101A200081827047828A22F004028282828A0A437B
:101A3000828270470029818A02D041F0020101E0D0
:101A400021F00201818270470246002012880A427A
:101A500000D001207047C9430180704770B501F084
:101A60001F0501260024C1F3421306FA05F2012BDB
:101A70000FD0022B0FD0838A4FEA11210088134226
:101A800006FA01F600EA060001D000B10124204662
:101A900070BD8389F0E7038AEEE70A0A01219140CD
:101AA000C9430180704700000038014000440040F5
:101AB00000480040004C0040005000405048018861
:101AC00021F4F0710180001D018821F040010180A6
:101AD000001D01884FF6FE32114001804949402027
:101AE000C1F88001464900200C39088070474549FB
:101AF0004020C1F800014248018841F4F0710180A2
:101B0000001D018841F040010180001D018840F264
:101B10000142114301803A4900200C390880704786
:101B2000002425464FF4A060FEF7CAFB022000F017
:101B30007DF8012000F07AF800F06CF900F0D0F8A0
:101B400000F083F800F091FE00F0F3FF41F61F472C
:101B50000021384600F088FC00F026FA00F074FA04
:101B600002F0DDF800F0CCFC00F0BDFA00F00AFB5A
:101B700005F0FBFB24484FF400460660C82000F047
:101B8000D7F92148001D066001F0A4FF3121384635
:101B900000F08DFBDFF874900827DFF874801D4E8D
:101BA00001F0B1FB012803D14FF4487002F017F99E
:101BB00099F800000228F3D830780028404614D065
:101BC000076102F0CDFA01F087F801F003F900F0A7
:101BD000C1FC6D1CEDB20444052D09D10520B4FBF8
:101BE000F0F00025B0802C4602E0476102F0C6FB11
:101BF0000120B07000207070B0780028FCD1CFE7D1
:101C00000C44004004E000E01008014008010020FE
:101C1000001001402C0000207047FEE7FEE7FEE7C1
:101C2000FEE770477047704700F05DB941062848ED
:101C3000826942F0010282612648426822F0E06235
:101C4000426042680A434260704738B50220FFF79D
:101C5000EDFF0120FFF7EAFF01210420FEF7D3FF8B
:101C60004FF40044ADF8004010208DF8030002202E
:101C7000194D8DF8020069462846FEF7DCFD214625
:101C80002846FEF744FE38BD10B5134C4FF4004211
:101C9000143428B1114B1968491C1960814201DDC7
:101CA000226010BD0C481030026010BD10B50A4C07
:101CB0004FF40042143428B1084B5968491C59604C
:101CC000814201DD226010BD03481030026010BD6A
:101CD00000100240000001400008014040000020C8
:101CE00038B501211420FEF78EFF0120ADF8000069
:101CF00004248DF8034069464248FEF79CFDE0024B
:101D0000ADF800008DF8034069463F48FEF793FDAB
:101D100038BD70B50C460546FEF7E3FD012801D03D
:101D2000002070BD21462846FEF7DBFD0128F9D0D2
:101D3000012070BD70B5354C002532482178062948
:101D40004FD2DFE801F003091A2333420121FEF7E5
:101D5000C8FD012816D044E06188491C89B2618021
:101D600005293ED10121FEF7BCFD012802D0658086
:101D7000257036E02078401C13E00121FEF7B1FD0C
:101D800001282BD02078401C20702AE06088B0F514
:101D9000C87F03D925706580022070BD052803D94E
:101DA0000420207065801CE02570FBE76188491CD9
:101DB00089B26180262914D10121FEF792FD012804
:101DC000D8D025706580012070BD0121FEF789FD06
:101DD000012803D065802570032070BD6088401CF9
:101DE0006080002070BD10B5FFF7A4FF012806D069
:101DF000022804D10649087810B10020087010BDEF
:101E00000120FBE7000801400010014048000020CD
:101E10002C00002038B501211020FEF7F4FE04202C
:101E2000ADF8000010208DF803000220144C8DF84E
:101E3000020069462046FEF7FEFC0821ADF80010BE
:101E400069462046FEF7F7FC04212046FEF75DFDBB
:101E500008212046FEF759FD38BD094A60B1094BFB
:101E60001968491C1960814205DBD06880F00400C4
:101E7000D060002018607047042010617047000097
:101E8000001001404C000020B0F1807F01D3012000
:101E9000704720F07F414FF0E020491E41613C4AED
:101EA000F02182F8141D00218161072101610020C9
:101EB0007047384810B500683749B0FBF1F0FFF7BC
:101EC000E3FF002800D0FEE710BD01B533480099BC
:101ED00081604FF0E0210A6942F001020A618168E5
:101EE0000029FCD108BD2D48816811B18168491EC7
:101EF00081600178002902D04168491C4160704727
:101F000001B5244801682648B1FBF0F0FFF7BCFF9B
:101F100000204FF0E02103E00A69D203FCD5401C09
:101F2000009A9042F8D3086920F00100086108BDCA
:101F300001B5184801684FF47A70B1FBF0F0FFF773
:101F4000A3FF00204FF0E02103E00A69D203FCD593
:101F5000401C009A9042F8D3086920F00100086103
:101F600008BD0E48002141600121017070470B49F6
:101F7000002008707047094810B5406805F0A4FEBD
:101F8000084905F0AFFCBDE8104005F0CCBE0000EC
:101F90000FE000E000000020A086010050000020BB
:101FA00040420F006666664010B586B001210420ED
:101FB000FEF729FE01218803FEF725FE4FF400708D
:101FC000ADF8100018208DF813000320AA4C8DF8EE
:101FD000120004A92046FEF72EFC2115ADF81010C2
:101FE00048218DF8131004A92046FEF724FC252073
:101FF0008DF8140001208DF815008DF816008DF86D
:10200000170005A8FEF761F94FF4E13000900020B9
:10201000ADF80400ADF80600ADF80800ADF80C000E
:102020000C20964CADF80A0069462046FFF7E2FB0B
:10203000012240F225512046FFF759FC012120469C
:10204000FFF74BFC06B010BD10B586B0012108208B
:10205000FEF7D9FD01218804FEF7DEFD4FF4806014
:10206000ADF8100018208DF813000320844C8DF873
:10207000120004A92046FEF7DEFBE114ADF81010B3
:1020800004218DF8131004A92046FEF7D4FB272065
:102090008DF8140001208DF815008DF816008DF8CC
:1020A000170005A8FEF711F94FF416500090002014
:1020B000ADF80400ADF80600ADF80800ADF80C006E
:1020C0000C20704CADF80A0069462046FFF792FBE1
:1020D000012240F225512046FFF709FC012120464C
:1020E000FFF7FBFBAEE710B586B001211020FEF72D
:1020F0008AFD0121C804FEF78FFD4FF48060ADF822
:10210000100018208DF8130003205F4C8DF812008A
:1021100004A92046FEF78FFBE114ADF8101048210A
:102120008DF8131004A92046FEF785FB34208DF8A6
:10213000140001208DF815008DF816008DF8170099
:1021400005A8FEF7C2F84FF4E13000900020ADF88A
:102150000400ADF80600ADF80800ADF80C000C2046
:102160004A4CADF80A0069462046FFF743FB0122BE
:1021700040F225512046FFF7BAFB01212046FFF728
:10218000ACFB5FE730B587B001210420FEF73BFDD3
:1021900001214804FEF740FD0424ADF8104018204A
:1021A0008DF813000320344D8DF8120004A9284641
:1021B000FEF741FB0821ADF810108DF8134004A97B
:1021C0002846FEF738FB26208DF8140001208DF8F4
:1021D00015008DF816008DF8170005A8FEF775F8A4
:1021E0004FF4E13000900020ADF80400ADF8060097
:1021F000ADF80800ADF80C000C20254CADF80A0035
:1022000069462046FFF7F6FA20212046FFF723FC17
:10221000012240F225512046FFF769FB01212046AB
:10222000FFF75BFB07B030BD70B504461948007876
:1022300060B1144D80212846FFF706FC0028F9D034
:10224000E1B22846FFF79FFB204670BD0B4D802171
:102250002846FFF7F9FB0028F9D0F1E710B5074C45
:1022600020212046FFF7F0FB0028F9D02046BDE8EA
:102270001040FFF78CBB000000080140003801400F
:10228000000C01400048004000100140004C00409C
:10229000004400402C00002070B50C46054600F0BC
:1022A00037F821462846BDE8704000F073B87FB586
:1022B000044632208DF80C0002208DF80D0001221A
:1022C0008DF80E200D468DF80F2003A8FDF7FDFFB9
:1022D00001210820FEF7A0FCADF804400020ADF875
:1022E00000505D4CADF80200ADF80600694620468E
:1022F000FEF770FD01212046FFF73AFA0122114650
:102300002046FFF724F801212046FFF70BF87FBD98
:10231000F8B501210420FEF776FC4020ADF800005E
:1023200018254E4E8DF8035003248DF8024069465F
:102330003046FEF780FA01210420FEF764FC80207D
:10234000ADF800008DF803508DF802406946304624
:10235000FEF771FA01210820FEF755FC0120ADF8C7
:1023600000003F4E8DF803508DF80240694630461C
:10237000FEF761FA01210820FEF745FC0220ADF8C6
:1023800000008DF803508DF8024069463046FEF794
:1023900052FAF8BDF0B50D46044687B0012102207F
:1023A000FEF73AFCADF8144000242E4FADF8105063
:1023B000ADF81240ADF8164004A93846FEF70AFD04
:1023C0006025ADF800500126ADF80260ADF806407A
:1023D000ADF8084069463846FEF735FDADF80050C7
:1023E000ADF80260ADF80640ADF8084069463846E1
:1023F000FEF75EFDADF80050ADF80260ADF80640A6
:10240000ADF8084069463846FEF78EFDADF800503D
:10241000ADF80260ADF80640ADF8084069463846B0
:10242000FEF7BCFD08213846FFF75AF80821384668
:10243000FFF766F808213846FFF76CF808213846A0
:10244000FFF76EF801213846FFF722F801213846E0
:10245000FEF768FF07B0F0BD000C00400008014027
:10246000000C014000040040FFF716BF10B5234BDD
:102470004FF4E1521C1D002804DA1A8000F5E150E7
:10248000208003E02280C0F5E15018801B4B083308
:10249000181D002904DA1A8001F5E151018010BDF0
:1024A0000280C1F5E150188010BD14494FF4E1508D
:1024B0000880091D0880091D0880091D08807047D3
:1024C0004FF4E1525342904201DD104602E098423F
:1024D00000DA1846914201DD114602E0994200DA25
:1024E0001946C3E705494FF4E1500880091D0880EB
:1024F000091D0880091D0880704700003404004051
:1025000008B501211020FEF77EFB0220ADF8000087
:1025100000208DF8030069463848FEF78CF9BDE8C5
:10252000084000F02AB810B5354C014607230122B7
:102530002046FDF7B9FF01212046FDF792FF022159
:102540002046FEF785F80028F9D02046BDE8104067
:10255000FDF7EEBF10B50B20FFF7E5FF05F0B4FB6C
:10256000284905F08DF9284905F08AF9274905F031
:1025700087F905F0D8FB80B210BD10B5012186B0F7
:102580008802FEF740FB1E4C2046FDF7F1FE0021BD
:102590004FF46020CDE902018DF804100120009174
:1025A0008DF805108DF8100069462046FDF7FCFEF9
:1025B0004FF40040FEF7BBFA072301220B2120460F
:1025C000FDF772FF01224FF408712046FDF728FF46
:1025D00001212046FDF710FF2046FDF72AFF204687
:1025E000FDF72CFF0028FAD12046FDF72EFF2046EC
:1025F000FDF730FF0028FAD106B010BD00100140F1
:10260000002801406740533A000030410000C842B2
:1026100070B50022F74C012311B1C4F88C3101E0F0
:10262000C4F88C21F44D0021C5F8B821060602D566
:10263000C4F8943101E0C4F89421C5F8B8314006DB
:10264000491C000EC9B20829EED3C4F88C3170BD04
:1026500070B5EA4E002505F1B000C0B20021FFF7C9
:10266000D7FF00210846FFF7D3FF00211020FFF716
:10267000CFFF002406EBC4000121405DFFF7C8FF37
:10268000641CE4B2802CF5D36D1CEDB2082DE2D3AE
:1026900070BD00B500218D20FFF7BAFF0021142086
:1026A000FFF7B6FF0021AF205DF804EBB0E700B5FF
:1026B00000218D20FFF7ACFF00211020FFF7A8FFBD
:1026C0000021AE205DF804EBA2E710B40021CB4B53
:1026D0000A46002003EBC004401CC0B262548028AC
:1026E000F8D3491CC9B20829F3D310BCB0E710B520
:1026F0007F2816D83F2914D80723A3EBD10301F074
:102700000701C1F107040121A140BC4CDBB204EB7D
:10271000C000002AC25CC9B201D00A4300E08A436B
:10272000C25410BD2DE9F04F203A9C460D4682461A
:10273000884602F0FF090026DDF824B02FE0BCF146
:102740000C0F08D0AE4901EB09100027845D20066C
:1027500007D55A4609E0AB4909EB490001EB800077
:10276000F3E7BBF1000F12D0002229465046FFF7D5
:10277000BEFF60066D1C040EEDB2A5EB08006045BF
:1027800007D10AF10100454600F0FF0A05E00122E9
:10279000EBE77F1CFFB2082FD9D3761CF6B2664553
:1027A000CDD3BDE8F08F0346012000E05843491E19
:1027B000C9B2FBD270472DE9FF4F81B00027DDF889
:1027C00038B01D46924680463C464FF001094FEA1C
:1027D0005B0627E0281B401EC1B20A20FFF7E3FF7B
:1027E000BAFBF0F00A21B0FBF1F201FB120027B9AD
:1027F000691E8C4201DA48B101273030C2B206FBB3
:102800000480C0B25B46CDF8009006E006FB048071
:10281000C0B25B462022CDF800900299FFF782FFFC
:10282000641CE4B2AC42D5D305B0BAE7F8B516469D
:102830000D460446012714E07A2C02D900241035F5
:10284000EDB23A2D03D900242546FFF73EFF00974D
:1028500032780C2329462046FFF764FF0834E4B29F
:10286000761C30780028E7D1F8BDF8B50220FFF7D4
:10287000DDF90120FFF7DAF901211820FEF7C3F98D
:1028800001210820FEF7BFF94FF48040ADF80000A9
:1028900010248DF8034003258DF8025069465A48EC
:1028A000FDF7C9FF2020ADF80000584E8DF8034019
:1028B0008DF8025069463046FDF7BDFFADF8004087
:1028C0008DF803408DF8025069463046FDF7B3FF9E
:1028D0000820ADF800008DF803408DF802506946DD
:1028E0003046FDF7A8FF434C0020C4F89001642057
:1028F00004F5C874FFF71CFB012020600021AE2006
:10290000FFF786FE0021D520FFF782FE0021502030
:10291000FFF77EFE0021A820FFF77AFE00213F206E
:10292000FFF776FE0021D320FFF772FE0021084654
:10293000FFF76EFE00214020FFF76AFE00218D2088
:10294000FFF766FE00211420FFF762FE0021202021
:10295000FFF75EFE00210220FFF75AFE0021A120B2
:10296000FFF756FE0021C020FFF752FE0021DA20BB
:10297000FFF74EFE00211220FFF74AFE00218120C2
:10298000FFF746FE0021EF20FFF742FE0021D9208D
:10299000FFF73EFE0021F120FFF73AFE0021DB2089
:1029A000FFF736FE00213020FFF732FE0021A42081
:1029B000FFF72EFE0021A620FFF72AFE0021AF2000
:1029C000FFF726FEFFF781FEF8BD30B5C400E1B287
:1029D00000220A4B083409E0002003EBC005401C2C
:1029E000C0B26A548028F8D3491CC9B28C42F3D8CB
:1029F00030BD00000080214200002242540200202D
:102A0000D89800086494000800100140000C0140B0
:102A100038B501211820FEF7F6F8C024ADF80040C3
:102A200004258DF8035069466048FDF704FFADF8B2
:102A300000408DF8035069465D48FDF7FCFE38BD47
:102A400038B51E208DF8000001248DF803408DF864
:102A5000014003258DF802506846FDF736FC2C2016
:102A60008DF800008DF803408DF801408DF802507C
:102A70006846FDF72AFC38BD70B586B001210420F8
:102A8000FEF7CAF801214803FEF7BDF86846FEF7D5
:102A900025FC00204FF6FF71ADF80410ADF80000E2
:102AA000444EADF80600ADF8020069463046FEF728
:102AB00091F9414D69462846FEF78CF900231A46E4
:102AC00003213046FEF7ABFC03A8FEF71AFC0A24EC
:102AD000ADF8144003A93046FEF734FB012130461F
:102AE000FEF746FE012211463046FEF730FC01217A
:102AF0003046FEF717FC00231A4603212846FEF74E
:102B00008EFC03A8FEF7FDFBADF8144003A9284690
:102B1000FEF718FB01212846FEF72AFE0122114686
:102B20002846FEF714FC01212846FEF7FBFB06B001
:102B300070BD10B5FFF76CFFFFF782FFBDE81040D6
:102B40009AE70021022807D003280BD004280BD0D5
:102B500008280CD0002070474FF08042B2F92400C2
:102B600091847047154A04E0124A243201E0124A67
:102B70002432B2F900001180704710B50D4C0121CC
:102B80002046FEF7EEFD2046BDE810400121FEF78D
:102B9000FEBD10B5084C01212046FEF7E2FD20469F
:102BA000BDE810400121FEF7F2BD0000000C01401D
:102BB000001001400008004000340140240400409F
:102BC00003788B54114443784B7082788A70C078B4
:102BD000C870704703B50A2912D8002910D00B29F4
:102BE0000ED2DFE801F00D06080E10121416181AA6
:102BF0001C00012200E0052229496846FFF7E0FF9A
:102C00000CBD0922F8E70D22F6E71122F4E71522A0
:102C1000F2E71922F0E71D22EEE72122ECE7252258
:102C2000EAE70A2839D890B31D4924220B280A70F4
:102C300033D2DFE800F032060A0E12161A1E2227DF
:102C40002D000520487106207047092048720A208F
:102C500070470D2048730E207047112048741220D1
:102C600070471520487516207047192048761A209D
:102C700070471D2048771E207047212081F82100D1
:102C800022207047252081F825002620704704E087
:102C9000292081F829002A20F8E70020F6E7000023
:102CA0005406002030B503460020012908D1002237
:102CB000AE4C03E0A55C6840521CD2B29A42F9D3F4
:102CC000002908D1A94A303203E0545C6040491C15
:102CD000C9B29942F9D330BD2DE9F041A34C7B2014
:102CE00020767D2084F82E00A1480168A148006864
:102CF00004F06EFD4FF0FF3104F032FE9E4904F007
:102D0000BFFD04F0F7FF60839C480025A5830068A1
:102D100004F0F0FFE0839A48006804F0EBFF608461
:102D2000FFF729F96421B0FBF1F003B29548A384C1
:102D3000B0F900209448E284B0F90010934821854E
:102D40000088404206B2924866850778B7B3A585E9
:102D500090484FF47A75008868432084257E25705A
:102D60006770658B2F0AA770E570A58B2F0A2771F6
:102D70006571E58B2F0AA771E571658C2F0A2772A3
:102D800065721D0AA572E372130A237362730A0A3D
:102D9000A273E173310A21746674A18D0A0AA274C8
:102DA000E174010A2175607501211620FFF77AFF91
:102DB000A07594F82E00E075BDE8F081FFE7764835
:102DC0000088A085C4E775490880081F0188490666
:102DD000FCD5704700B5654B0022985CFFF7F3FF08
:102DE000521CD2B2182AF8D300BD704710B501EBBF
:102DF000002000B204F06DFF0022694B04F0D5FE04
:102E0000BDE8104004F0D5BF70B5664C40F22555C2
:102E100029462046FEF722FED0B329462046FEF77B
:102E20003CFE2046FEF7B3FDC1B25F480122624B73
:102E300002705E4800224D4C02705D4830347B29A0
:102E400002705C4802701878215400D000B3401C16
:102E5000C0B218700B281BD11A70A07A7D2817D128
:102E600000210920FFF71EFF617A884210D12179E5
:102E7000E078FFF7BBFF51490860217AE079FFF75E
:102E8000B5FF4F4C4F4A5049206000F033FD2060A1
:102E9000002070BD38B54D4C40F2255529462046DE
:102EA000FEF7DCFD002815D02046FEF770FDC2B20B
:102EB00041480323001D011F497842540C20002182
:102EC00000900846FFF777FC29462046BDE83840C9
:102ED000FEF7E3BD38BD38B53D4C40F225552946D7
:102EE0002046FEF7BBFD08B32046FEF750FD10F06C
:102EF000FF0231483049837801F10501CA548271DB
:102F0000836803F10103836004D0C17811B9C271F1
:102F10000121C170B3F57A7F04D9002229462046E9
:102F2000FEF7E5FC29462046FEF7B7FD4FF4587141
:102F30002046FEF793FD002809D02088ADF8000058
:102F40002348001D0088ADF80000BDF8000038BD22
:102F50001449091D0880081F01884906FCD57047DF
:102F600010F1FF4F01D380F0004070478006002031
:102F700030070020200700200000C842AC010020DC
:102F8000900000207A0000208600002082000020AF
:102F9000330000203000002084000020044800405E
:102FA00000408F40003801402A0000202900002006
:102FB00028000020340000205C0000208800002051
:102FC0008C000020920A863F920A86BF004C004087
:102FD0000044004010B500210846FFF771FAFF4891
:102FE0000021C1638163416310BD2DE9F0410646B4
:102FF00003F0DEFFF94DFA49E87930B90868286531
:1030000000206865A8650120E8710968286D04F052
:1030100031FC0446F348F44F844204DD394620462F
:1030200004F028FC0446F148844204D9394620467D
:1030300004F0CEFB04462146A86D04F0C9FBA86548
:103040002046696D04F016FC01216C6504F088FCD3
:103050000546E749204604F013FC294604F0B8FB76
:1030600004F048FE321A81194FF4E1504342824283
:1030700001DD024602E09A4200DA1A46814201DD91
:10308000014602E0994200DA1946BDE8F04150429B
:10309000FFF716BA2DE9F041064603F089FFCF4D40
:1030A000CF49287A30B90868E86500202866686644
:1030B000012028720968E86D04F0DCFB0446C94869
:1030C000C94F844204DD3946204604F0D3FB044650
:1030D000C648844204D93946204604F079FB0446A8
:1030E0002146686E04F074FB68662046296E04F081
:1030F000C1FB01212C6604F033FC0546BC49204687
:1031000004F0BEFB294604F063FB04F0F3FD321A21
:1031100081194FF4E1504342824201DD024602E050
:103120009A4200DA1A46814201DD014602E09942E4
:1031300000DA1946BDE8F0415042FFF7C1B92DE968
:10314000F041064603F034FFA44DA549687A30B932
:103150000868A8660020E866286701206872096888
:10316000A86E04F087FB04469E489F4F844204DD0E
:103170003946204604F07EFB04469C48844204D92C
:103180003946204604F024FB04462146286F04F00B
:103190001FFB28672046E96E04F06CFB0121EC66FA
:1031A00004F0DEFB05469249204604F069FB2946FF
:1031B00004F00EFB04F09EFD321A81194FF4E15029
:1031C0004342824201DD024602E09A4200DA1A4698
:1031D000814201DD014602E0994200DA1946BDE86C
:1031E000F0415042FFF76CB92DE9F041064603F07B
:1031F000DFFE7A4D7A49A87A30B9086868670020FE
:10320000A867E8670120A8720968686F04F032FBBC
:1032100004467448744F844204DD3946204604F065
:1032200029FB04467148844204D93946204604F0FB
:10323000CFFA04462146E86F04F0CAFAE867204650
:10324000A96F04F017FB0121AC6704F089FB054668
:103250006749204604F014FB294604F0B9FA04F04B
:1032600049FD321A81194FF4E1504342824201DD97
:10327000024602E09A4200DA1A46814201DD014626
:1032800002E0994200DA1946BDE8F0415042FFF7EA
:1032900017B970B5C0F1500004F00DFD4F4C054654
:1032A0000146E06B04F094FAE0632846A16B04F059
:1032B000E1FA5049A56304F0E3FA04464E49284672
:1032C00004F0DEFA214604F083FA4C49884202DC1D
:1032D0004B49884200D908464A4AA0F5000191426C
:1032E00000D2494800F1FF41914200D2474804F022
:1032F00001FDA0F2DC51BDE870404A4200F2DC5111
:103300005042FFF7DDB83548407870473349002018
:10331000487070472DE9F14F03F04AFE2F4C304FB3
:10332000304DE07A314EDFF8C0B04FF0000904F1C3
:1033300080084FF0010AB0B93968C8F80010009849
:1033400004F046FA02E0594604F094FAA842FADC86
:1033500002E0594604F03CFAB042FAD82064C8F8BA
:10336000049084F80BA03968206C04F083FAA8421A
:1033700002DD594604F07EFAB04202D9594604F003
:1033800027FA20F000401B4904F030FD09D200214B
:103390000846FFF795F884F801A084F80B90BDE883
:1033A000F88F0098B0F5000F01DB012401E04FF029
:1033B000FF34154D164E604204F07DFC294604F0A2
:1033C0005FFA0546204604F076FC314604F058FAD0
:1033D00004F090FC044628461CE000006800002031
:1033E000AC010020000034430000B443000034C3AB
:1033F0000000C841000040400000F04100803B4513
:1034000000803BC50000C84200004843000048C39C
:103410000000E14404F06EFC2146BDE8F84FFFF7E0
:103420004FB82DE9F14F03F0C3FDFE4CFE4FDFF81E
:10343000FC83207BDFF8F893DFF8F8B3002604F173
:1034400080054FF0010AA0B9A6703968009804F011
:10345000BFF96064404503DB594604F00BFA606431
:10346000484503D9594604F0B3F96064AE6084F866
:103470000CA03968606C04F0FDF90746404503DD97
:10348000594604F0F7F907464F4504D959463846DE
:1034900004F09EF9074627F00040E74904F0A6FC37
:1034A00007D200210846FFF70BF884F802A0AE60AF
:1034B00075E73846A96804F0DDF90221AF6004F031
:1034C0004FFA0446DD49384604F0DAF9214604F0A3
:1034D0007FF9DB49884202DCDA49884200D9084694
:1034E000D94AA0F50001914200D2D84800F1FF412D
:1034F000914200D2D64804F0FDFBBDE8F84F0146EA
:10350000FEF7DEBF2DE9F14F03F052FDC54CC64F6B
:10351000DFF81883607BDFF81893DFF818B3002614
:1035200004F180054FF0010AA0B9E67039680098EF
:1035300004F04EF9A064404503DB594604F09AF9C3
:10354000A064484503D9594604F042F9A064EE60EE
:1035500084F80DA03968A06C04F08CF9074640454A
:1035600003DD594604F086F907464F4504D959460C
:10357000384604F02DF9074627F00040AE4904F024
:1035800035FC07D200210846FEF79AFF84F803A015
:10359000EE6004E73846E96804F06CF90221EF6058
:1035A00004F0DEF90446A549384604F069F92146DD
:1035B00004F00EF9A249884202DCA249884200D9EF
:1035C0000846A14AA0F50001914200D29F4800F1AF
:1035D000FF41914200D29E4804F08CFBBDE8F84FB9
:1035E0000146FEF76DBF2DE9F14F03F0E1FC8D4C74
:1035F0008D4FDFF83882A07BDFF83492DFF834B2E9
:10360000002604F180054FF0010AA0B9267139683F
:10361000009804F0DDF8E064404503DB594604F00F
:1036200029F9E064484503D9594604F0D1F8E0642B
:103630002E6184F80EA03968E06C04F01BF907468F
:10364000404503DD594604F015F907464F4504D9B6
:103650005946384604F0BCF8074627F00040764942
:1036600004F0C4FB07D200210846FEF729FF84F8C6
:1036700004A02E6193E63846296904F0FBF8022184
:103680002F6104F06DF904466C49384604F0F8F8EF
:10369000214604F09DF86A49884202DC6949884263
:1036A00000D90846684AA0F50001914200D2674857
:1036B00000F1FF41914200D2654804F01BFBBDE8D8
:1036C000F84F0146FEF7FCBE70B56248006820F076
:1036D000004004F05BFB04465E480D46103800686D
:1036E00020F0004004F052FB22462B4604F044F93F
:1036F0004FF0FF3204F0C8FA04F05BFB494C564926
:10370000206304F0BDF805460146A06A04F060F8A5
:10371000A0622946E06A04F05BF8E06270BD10B573
:103720004E48404C0021007898B104F180020128F5
:103730001BD04B4B02281AD003281AD004281AD0C9
:1037400005281ED0474B062815D007281FD008286B
:103750000DD0216261624449206A04F0C3F82062FE
:10376000606A80F00040606210BD50690CE05069F2
:1037700004E03E480CE0506980F00040C4E90803D2
:10378000E9E7506980F00040C4E90801E3E7384800
:10379000C4E90810DFE72DE9F0410420FFF7D1F973
:1037A000204C983420600820FFF7CBF90546606074
:1037B000206804F080FA0646684204F07CFA2D4C3A
:1037C00007462146304604F05BF82B4909680E464F
:1037D00004F056F8294D294604F084F81D491039A3
:1037E00008602146384604F04BF8314604F048F8AA
:1037F000294604F077F817490860BDE8F08138B52C
:103800001F4C01212046FDF7B6FF50B10121204693
:10381000FDF7BDFFFFF7BFFFFFF756FFFEF7E3FA27
:1038200030E065E068000020AC0100200000344377
:10383000000034C30000B443000070410000204287
:1038400000C0DA4500C0DAC5000016430000964308
:10385000000096C3300700200AD7A33B18010020C0
:10386000DB0F493FDB0F49BF00007A44DB0FC93F44
:10387000DB0FC9BF00004843380000200000C344EC
:10388000000C004003F094FBF8A200213220FEF768
:10389000CDFFF74C62780C250021012308460095E6
:1038A000FEF789FFF348006804F03DFA0246022360
:1038B000002146200095FEF77EFFEF4A107860B1A8
:1038C000EE490878401CC0B2087000230A2802D0D4
:1038D00008780A2801D90B701370E948007801288C
:1038E00001D1FFF71CFF607810B9E648FFF712FD21
:1038F000002038BD70B514460D46064604F076FA31
:1039000001D2284670BD2146304604F079FA01D232
:10391000204670BD304670BD2DE9F041D44C0E46B6
:103920000546DFF86483D94AD949206AFFF7E2FFE8
:103930002062D84AD849606AFFF7DCFF606215F15F
:10394000FF4F01D386F00046D4480168304603F0AB
:1039500097FF4FF0FF3104F003F80646294603F0C5
:103960008CFFCF4C07462946A060304603F030FF5D
:1039700004F11005CB4EA860314642463846FFF7A9
:10398000B9FFA06031464246A868FFF7B3FFA860C0
:1039900033E770B515460E46044604F031FA00D2FE
:1039A00034462946204604F021FA00D22C4620460F
:1039B00070BD70B50246BA4D00200121283D05EBCF
:1039C000810455F82130491CC9B244F8043C0A2945
:1039D000F5D300246A6255F8241003F0F9FE641C44
:1039E000E4B20A2CF7D3B04903F07CFF04F082F96B
:1039F000BDE8704004F05FB970B50246A84D0020E4
:103A00000121503D05EB810455F82130491CC9B214
:103A100044F8043C0A29F5D300246A6255F82410BE
:103A200003F0D6FE641CE4B20A2CF7D39E4903F0DF
:103A300059FF04F05FF9BDE8704004F03CB92DE98E
:103A4000F041974CA168206800F010FE04F033F9B3
:103A500004F110056060A968286800F024FE04F0F5
:103A60002AF968606068FFF7C7FF60606868FFF761
:103A7000A0FF8E4E8E4F6860324639466068FFF771
:103A800088FF6060324639466868FFF782FF6860E9
:103A9000B3E6884201DA084670479042FCDD1046E2
:103AA000704770B583480024D0F83401824D2870E7
:103AB00082480088B0F57A7F04D23220FEF7CDF933
:103AC000012402E0C820FEF7C8F9287800B10124DB
:103AD000204670BD7B497A48086070497A48086082
:103AE00070472DE9F047054601287DD04421D020BC
:103AF00003F036F804464321D02003F031F804EBFC
:103B000000205B4C46216083D02003F029F8064654
:103B10004521D02003F024F806EB0020E083482163
:103B2000D02003F01DF806464721D02003F018F8F6
:103B300006EB0020A0833C21D02003F011F80646BC
:103B40003B21D02003F00CF806EB0020A0823E21A0
:103B5000D02003F005F806463D21D02003F000F800
:103B600006EB002020824021D02002F0F9FF06461B
:103B70003F21D02002F0F4FF06EB002000B260826B
:103B800004F0A7F806460F46B4F9100004F0A1F8B7
:103B900032463B4604F094FEDFF830810022434673
:103BA00003F091FFDFF828A14FF0C0494A46534681
:103BB00003F0FBFF04F0CBF8E082B4F9120004F04C
:103BC00088F806460F46B4F9140004F082F832462D
:103BD0003B4604F075FE0022434603F074FF4A465C
:103BE000534603F0E2FF00E07AE004F0B0F82083EF
:103BF000B4F91A0004F06DF8364E0022334603F093
:103C0000D4FF04F0A4F800B260838046B4F91E002B
:103C100004F05FF80022334603F0C7FF04F097F882
:103C20002D4E2E4FE083022D5ED0032D1CD1404639
:103C300004F041F80546B4F9160004F03CF82946B2
:103C400003F08FFC80F000403060B4F91E0004F0F7
:103C500032F80546B4F9180004F02DF8294603F0AF
:103C600040FD80F000403860BDE8F0875961770082
:103C700068000020AC0100202E0000202D00002054
:103C8000290000200000B442000060409A99993F4A
:103C90009A9999BF920A863F920A86BF3C000020FB
:103CA00020070020000060C00000204100A0D7C510
:103CB00000A0D74500002242330000203000002041
:103CC000D589573E380000207D3F353E0080664054
:103CD000FB21094000605040A4010020A801002001
:103CE000BDE8F04703F064B9404603F0E4FF054641
:103CF000B4F9160003F0DFFF294603F08DFB80F0D6
:103D000000403060B4F91E0003F0D5FF0546B4F959
:103D1000180003F0D0FF294603F03FFCA1E708B5E7
:103D200001210420FCF76FFF01210820FCF76BFF45
:103D300001210846FCF767FF0121F748FCF706FE62
:103D400048208DF8030003208DF802004FF4F24064
:103D5000ADF800006946F148FCF76DFD4FF44050A6
:103D6000ADF800006946EE48FCF765FD08BDF8B502
:103D7000EA4E04464FF4005529463046FCF7B1FDA3
:103D8000207008213046FCF7ACFD607069003046B9
:103D9000FCF7A7FDA070A9103046FCF7A2FDE0706B
:103DA00069113046FCF79DFD20716F103946304691
:103DB000FCF797FD2946DA4D60712846FCF791FD26
:103DC000A07139462846FCF78CFDE0710C2000906C
:103DD000A27801233C210020FEF7EDFCF8BD2DE97F
:103DE000FC4104469DF8000038B99DF8011021B946
:103DF0009DF8021009B99DF8031038B99DF801101B
:103E000021B99DF8021009B99DF8031038B99DF841
:103E1000011021B99DF8021009B99DF8031040B9AD
:103E20009DF8010028B99DF80200012801D19DF8F4
:103E300003006846FFF79BFF9DF80000624204F50F
:103E4000FA7604F5487540B101286DD000286CD091
:103E500001286BD000286AD05AE19DF8010004F5D2
:103E6000967C18B1012873D078B351E19DF8020017
:103E700004F1C80304F19607A4F1C8015B4228B11C
:103E800001281AD030B11CD0B8B305E19DF8030069
:103E9000012803D09DF8030080B307E19DF80400DA
:103EA000012809D19DF8050000287BD19DF8060066
:103EB000002801D19DF807002AE19DF803000128A0
:103EC00004D09DF8030070B319E16EE09DF8040082
:103ED000002868D19DF80500002838D19DF806001B
:103EE000002834D19DF80700002830D1A4F19601B4
:103EF0007842FEF7E5FABDE8FC812AE0FFE79DF88D
:103F00000400012828D19DF8050001281FD19DF843
:103F1000060000287ED19DF80700002817D1C4F1C3
:103F200096003946E5E703E059E07AE05BE0ADE072
:103F30009DF8040000280AD19DF80500002806D14C
:103F40009DF80600002802D19DF8070080B1DFE04F
:103F500010E09DF8030038BB9DF80400E8BB9DF815
:103F60000500012869D19DF806000028ECD029E061
:103F70001846BEE79DF8020001282FD19DF80300E6
:103F800060BB9DF8040048BB9DF8050030BB9DF860
:103F9000060018BB9DF8070000BBA4F59671CCF194
:103FA0000000A6E77EE09DE036E09DF8020090BBB1
:103FB0009DF8030080BB9DF8040070B99DF80500D2
:103FC00001283AD19DF80600012807D19DF8070085
:103FD000F0BBC4F5967061468BE762E03AE09DF86D
:103FE0000100012803D09DF8010090B390E09DF8F6
:103FF000020078BB9DF8030060BB9DF8040048BB3D
:104000009DF8050030BB9DF8060018BB9DF8070021
:1040100000BB02E06EE03FE042E0A4F5FA717042BE
:1040200067E79DF80100A8B99DF80200A0BB9DF8C4
:104030000300A8BB9DF8040098BB9DF8050088BB51
:104040009DF80600012842D19DF80700012802E0F2
:104050005AE005E02EE05BD1C4F5FA70314648E73E
:104060009DF8020030BB9DF8030018BB9DF80400CA
:1040700000BB9DF80500E8B99DF80600D0B99DF891
:104080000700B8B9A4F54871684232E79DF801000D
:1040900080B99DF8020030B1C0B201282FD037E0BE
:1040A00004E00BE022E09DF8030020B1C0B201283B
:1040B00018D018B12CE09DF8040028B19DF8040038
:1040C000012813D090B123E09DF8050070B99DF848
:1040D0000600E8B99DF80700012819D1C4F5487019
:1040E000294606E79DF80400012811D19DF8050036
:1040F00001280DD19DF80600012805D008E09DF8A3
:1041000003000128EED003E09DF80700012809D044
:1041100021461046EDE60000000430000008014092
:10412000000C01400D4900204870E4E60B4800787F
:1041300070470A488079704710B54FF400642046F4
:10414000FCF70CFB002807D00449012048712046E9
:10415000BDE81040FCF710BB10BD00006800002057
:10416000F8B54FF480619C4803F01AFB9B480C247F
:104170000094027802230A213220FEF71CFB9848A3
:104180000094022302780A210020FEF714FB95A276
:1041900014210020FEF74AFB944800940223027881
:1041A00014211E20FEF707FB91A214213220FEF7F6
:1041B0003DFB92489049006803F062FB03F0B3FDB9
:1041C0000246022314215A200094FEF7F4FA8CA22E
:1041D00014216E20FEF72AFB8AA228210020FEF778
:1041E00025FB894D894EA868B04207D388A22821B3
:1041F0000F20FEF71BFBA868B04204D285A228213D
:104200000F20FEF713FB84480168286803F0E0FAEA
:104210004FF0FF3103F0A4FB804903F031FB03F0C2
:1042200082FD0246022328211E200094FEF7C3FAD5
:104230007BA228213720FEF7F9FA7AA21E2100205E
:10424000FEF7F4FA79A21E213620FEF7EFFA78A2E3
:104250001E214E20FEF7EAFAFDF78DFE4FF47A712B
:10426000B0FBF1F201231E2128200094FEF7A3FAEF
:10427000FDF781FE6421B0FBF1F00A25B0FBF5F1FA
:1042800005FB110201231E2130200094FEF793FA52
:10429000FDF771FEB0FBF5F0B0FBF5F105FB110287
:1042A00001231E213E200094FEF785FAFDF763FEF0
:1042B000B0FBF5F105FB110201231E2146200094FD
:1042C000FEF779FA5B48009403230278322100203C
:1042D000FEF771FABDE8F840FEF7BAB92DE9F843E8
:1042E0005548032100884000A0F5FA6090FBF1F4E6
:1042F000002C01DA002402E0642C00DD64244F4924
:10430000087800B3002008704D4900260A78012A79
:104310001BD03D49414F0D683F490A68C0B139463D
:10432000104603F0ADFA03F0E5FC04463946284692
:1043300003F0A6FA03F0DEFC2246BDE8F84301468E
:1043400040A003F019BF0120DDE70E70BDE8F8833F
:10435000B8463946104603F093FA03F0CBFC074603
:104360004146284603F08CFA03F0C4FC014623467C
:104370003A4637A0009603F0FFFEE7E770B52E48F7
:10438000008803F0A1FC254903F0ACFA04461E485E
:104390000121C068FEF71EFC1F480221C068FEF71D
:1043A00019FC03212046FEF715FC0320FEF739FC1B
:1043B0002B4A00212B4C151D06E013885B06FCD50B
:1043C000635C2B80491CC9B28142F6D370BD0028C2
:1043D00000DC404280B270475402002032000020CE
:1043E000090100204349523A000000000801002062
:1043F000544F543A0000000000002041900000207B
:104400006D000000563A0000200700200000808068
:104410002D0000002B000000300700200000C842E3
:104420006D2F530054494D20000000002E00000065
:104430005300000063000020300000201001002025
:10444000170100207B4225643A25647D240000008A
:104450007B4125643A25643A25643A25647D24002D
:1044600000380140540600202DE9F05F6E4D40F207
:10447000255631462846FDF7F1FA002821D0284676
:10448000FDF785FA694C3146E0602846FDF705FBEB
:104490006749DFF8A0B1684A0878684F01264FF0F5
:1044A000000848B1E568DFF898A1A5F141000728A8
:1044B0001FD8401C207163E0E068412803D0C4F895
:1044C0000880BDE8F09FA068401CA0600528F8D1D6
:1044D000C4F808800E705B495D4881F800805A4935
:1044E00081F80080594981F800801060C7F800B059
:1044F000E7E75A2D03D00A2D04DC257140E084F84B
:1045000004803DE05349592D06D0582D1ED07B2DF7
:1045100047D07D2D4CD033E09146106803F0AAF9C6
:104520004D49C9F80000884201DAC9F8001038681E
:1045300003F02CFC494A4A4B03F0BFFA03F039FC64
:10454000386058451CDAC7F800B019E09146106889
:1045500003F03EF94349C9F80000884201DDC9F87B
:104560000010386803F012FC3C4A3D4B03F004FA9B
:1045700003F01FFC4FF07E513860884200DD396047
:10458000207801280ED002289BD19AF803105046BB
:10459000502910D04178232938D06178A170D146B4
:1045A00031E0267060780AF80050401C607088E79F
:1045B00002202070E9E7E67028E06178081A03F02D
:1045C00088FB02460B460020274904F039FAA778F9
:1045D000054609EB07000E4610F8010C303803F0D1
:1045E00078FB2A46334603F06EFA05460E462069EC
:1045F00003F0CCFB2A46334603F0BEF903F0D9FBA7
:104600007F1E2061A770A0780428D6D284F800808D
:1046100084F8018084F80280C4F81080BDE8F05F5F
:104620003221074803F0BCB80048004014010020C4
:10463000290000207CD9203EFC0000200C01002035
:1046400040070020280000202A000020340000201D
:104650000000AF430000C841000052439A99999965
:104660009999B93F000048440000244070B503F018
:1046700004F9384C05460146606803F001F9064626
:104680002846E16903F0F6F8216803F0F9F83146AD
:1046900003F09EF8A16903F09BF8C4E90605BDE8A4
:1046A000704003F027BB70B503F0E7F8294C0546CE
:1046B0000146606803F0E4F806462846A16A03F064
:1046C000D9F8216803F0DCF8314603F081F8616A1B
:1046D00003F07EF8C4E90905BDE8704003F00ABBA9
:1046E0002DE9F04103F0C9F81A4C06460146606B0B
:1046F00003F06EF818496063884202DC174988426B
:1047000000D961633046A16B03F0B4F8E16803F0AF
:10471000B7F80546616B206903F0B2F807463146E9
:10472000A06803F0ADF8394603F052F8294603F0CB
:104730004FF80B49A6632063496811F0FF4F06D17B
:104740000849496811F0FF4F01D100216163BDE8BC
:10475000F08100002801002000409C4500409CC5DD
:104760002007002030070020F8B5FA4C002322462D
:1047700094F82460D2E900125D1E56B190B1022077
:104780000DE01078C97B6B46012202F057F960B941
:104790000DE0A67A4EB128B1607C58B901208DF8A1
:1047A0000000EEE78DF80030EBE72846F8BD9DF8F5
:1047B000000060740020F8BD38B50024E54D12E01B
:1047C0002868C27AA2420CD0407DA04209D0087865
:1047D0006B460122214602F08DF910B14FF0FF30F7
:1047E00038BD641CE4B269680879A042E8D80020AA
:1047F00038BDD84A30B40B4611684FF0FF34CD7A3B
:10480000854206D0497D814203D051680A798242AF
:1048100002D8204630BC70470C780146204630BC98
:10482000012202F067B938B5CA4D044695F8230055
:10483000A04201D1002038BD0CB1302000E00020A2
:104840008DF80000A87C28B19DF8000040F002001F
:104850008DF8000095F8220028B19DF8000040F086
:1048600080008DF8000028686B460122017D686891
:10487000007802F0E3F810B14FF0FF3038BD85F852
:104880002340D7E7F8B5044610F0700F4FF000064C
:1048900001D0012004E014B18DF8006002E0402056
:1048A0008DF80000AB4D6B4601222868817C68685A
:1048B000007802F0C3F84FF0FF3760BB9DF80000AE
:1048C00020F0400028738DF80060600602D40420B8
:1048D0008DF80000A00605D49DF8000040F002000D
:1048E0008DF80000E00605D49DF8000040F00100BE
:1048F0008DF80000200705D49DF8000040F0380036
:104900008DF8000028686B460122C17C6868007839
:1049100002F094F810B1AE723846F8BD24B1082CFC
:1049200002D00020FFF77FFFAC722E753220FDF71A
:10493000FFFA0020F8BDF8B5864D0446A87CA042D9
:1049400001D10020F8BD83484FF0FF366B46D0E917
:1049500000104FF001020979007834B302F0CAF870
:10496000D8BB9DF800006B4620F020008DF80000B9
:104970002868012201796868007802F05FF860BB5E
:104980000320FDF7D5FA02208DF8000095F82200EB
:1049900070B382202AE028686B460122017D686896
:1049A000007802F04BF8C0B92DE002F0A3F8A0B9EE
:1049B000A87AC0079DF8000002D040F0200001E076
:1049C00020F020008DF8000028686B460122017954
:1049D0006868007802F032F808B13046F8BD03206C
:1049E000FDF7A6FA95F8220000B180208DF80000AE
:1049F00095F823000028CED09DF8000040F030004C
:104A00008DF80000C7E7AC749BE7F8B5514D4FF047
:104A1000FF36A87A00287CD000248DF80040286852
:104A20006B460122C17B6868007802F007F8002815
:104A30006FD128686B46012241796868007801F0DF
:104A4000FDFF002865D128686B460122017968685E
:104A5000007801F0F3FF00287AD195F82400C8B35C
:104A60000C208DF8000028686B46012201796868E7
:104A7000007801F0E3FF00286AD1C0208DF8000023
:104A8000A87AC00702D0E0208DF8000028686B46A5
:104A9000012201796868007801F0D0FF002857D121
:104AA000687C18B102208DF8000001E08DF800400C
:104AB00028686B460122C17B6868007801F0BEFF60
:104AC00038BB8DF8004028686B4601224179686840
:104AD000007839E0FFE704208DF8000028686B4675
:104AE000012201796868007801F0A8FF88B9A87CE4
:104AF00080B9A87AC0070DD060208DF80000286822
:104B00006B46012201796868007801F097FF00B9CF
:104B100002E01DE04020F0E7687C18B101208DF82C
:104B2000000001E08DF8004028686B460122C17B3F
:104B30006868007801F082FF50B92868054B0122AF
:104B4000417968681033007801F078FF002800D0C0
:104B50003046F8BD640100202DE9F041FF4D20F002
:104B60000104002695F8240010B10020BDE8F08172
:104B7000A87A4FF0FF3838B120402F7C2874A0422B
:104B800000D0464624B901E04046EFE7287D40B119
:104B90000120FFF7E9FD3CB1FFF737FF20B12F748B
:104BA000F2E70020FFF7E0FD3046DFE738B5EB4CD9
:104BB0004FF0FF35A17A31B3BC2801D3012010E0BA
:104BC000622801D302200CE02A2801D3032008E048
:104BD000142801D3042004E00A2801D3052000E0B2
:104BE00006208DF80000E07A9DF80010884201D17F
:104BF000002038BD20686B4601228178606800780B
:104C000001F01CFF08B1284638BD9DF80000E07295
:104C1000EEE72DE9F84304464FF0FF39282844D841
:104C20000727CE4D00267CB10120FFF7FCFD202098
:104C30008DF800004FF00108012C17D0052C18D872
:104C40008DF8018005201FE00020FFF7ECFD8DF8B6
:104C500000608DF8017028686B460222817C6868CC
:104C6000007801F0EBFE00BB2E7529E08DF80160A5
:104C7000E8E7142C04D802208DF801000A2003E094
:104C800003208DF801001420FFF790FF9DF801002C
:104C90006B4607EB80108DF8010028680222817CAA
:104CA0006868007801F0CAFE10B14846BDE8F88394
:104CB0000820A8722E7385F814800020FFF74CFF9F
:104CC0000020F3E7F8B5A54D04464FF0FF37A87A6A
:104CD00028B395F8240010BB287D48B12CB1282CAE
:104CE00003D8E0B2FFF795FF24E00020FFF791FF23
:104CF0004FF47A76042C01D2042402E0B44200D9A5
:104D00003446B6FBF4F0401E8DF8000028686B4670
:104D1000012241786868007801F090FE08B13846B9
:104D200017E79DF80000401CB6FBF0F0E881400852
:104D3000FFF73CFF00200CE738B5884C4FF0FF35FB
:104D4000A17A19B3022806D0042806D008280ED06C
:104D500010281BD10DE0002000E008208DF8000095
:104D6000607A9DF80010B0EBD10F04D005E0102060
:104D7000F4E71820F2E7002038BD20686B460122D6
:104D8000C1796068007801F059FE08B1284638BD45
:104D90009DF80000C0086072EDE738B56F4C4FF029
:104DA000FF35A17A31B3FA2809D0B0F5FA7F08D0DF
:104DB000B0F57A7F0FD0B0F5FA6F1BD10DE000206F
:104DC00000E008208DF80000207A9DF80010B0EB7C
:104DD000D10F04D005E01020F4E71820F2E70020FE
:104DE00038BD20686B46012281796068007801F047
:104DF00025FE08B1284638BD9DF80000C008207285
:104E0000EDE72DE9FC41554C80208DF8000020682D
:104E10006B460122817C6068007801F00FFE4FF044
:104E2000FF37002832D16420FDF782F800258DF885
:104E3000005020686B460122817C6068007801F098
:104E4000FDFD002870D120686B460622817D6068D8
:104E5000007801F04FFE002866D19DF805009DF80E
:104E60000310C007400F01F0010140EA41019DF825
:104E700001004FF0010600F00100014309D00129B3
:104E800005D0022915D036A003F076F94CE0E6747F
:104E900010E020686B460122C1786068007801F05C
:104EA00029FE40BB9DF8000010F00F0020D0042820
:104EB00022D0E574FF2004F80A0F4FF6FF7104F8C2
:104EC000020C04F8010C6070A180A0712072A67021
:104ED00026766576E572A572E56025616561A57641
:104EE000E576A5834FF4FA60FFF757FF18B907E09E
:104EF000254803F041F917E024A003F03DF9C6E787
:104F00000220FFF719FF78B92A20FFF74FFE58B9A2
:104F10003220FFF7D7FE38B90020FFF71DFE18B981
:104F20000020FFF708FD10B13846BDE8FC810020E5
:104F3000FFF7A8FC0020F8E770477CB50446074857
:104F40004FF0FF35817A11F0700F32D00168406860
:104F50006B46097B0078062228E0000064010020EF
:104F6000556E737570706F7274656420736F6674BC
:104F7000776172652070726F6475637420726576F4
:104F80002025642E0A00000088AC000848616C6689
:104F90002073656E736974697669747920706172C3
:104FA0007420666F756E642E0D0A000001F0A2FD7C
:104FB00008B128467CBDBDF8000040BA2080BDF88D
:104FC000020040BA6080BDF8040040BAA080002012
:104FD0007CBD7CB50446FE484FF0FF35817A090759
:104FE00008D5016840686B46497B0078062201F0CD
:104FF00081FD08B128467CBDBDF8000040BA208084
:10500000BDF8020040BA6080BDF8040040BAA0803C
:1050100000207CBDF8B5EE4C07464FF0FF35A07A76
:1050200040B120686B460222817B6068007801F005
:1050300061FD08B128468CE5BDF80000646840BAFF
:1050400005B2E08802F040FE0646B4F9080002F01E
:1050500032FE0446284602F02EFE214602F00AFCEB
:10506000314602F03FFCDB4902F0B2FB102102F0B6
:1050700077FC02F03FFE386000206AE52DE9FC4134
:1050800004004FF0FF3862D0206820B9606810B982
:10509000A06800285CD0CE4F03226B46786811468A
:1050A000007801F027FDE0BB9DF80010082000EB20
:1050B000111101F00F029DF801109DF8023000EB74
:1050C000111100EB1310236840325B0093FBF2F2E6
:1050D00016B2626801F00F015200403192FBF1F10B
:1050E0000DB2A16800F00F004900403091FBF0F0D4
:1050F00004B2786806226B460078114601F0FAFC8B
:1051000078B9BDF80000BDF8021040BABDF804201F
:10511000304449BA52BA030A294422448DF8003077
:1051200000E014E08DF80100080A8DF80200100A72
:105130008DF804008DF803108DF80520786806229C
:105140006B460078114601F079FC002800D04046FB
:10515000EBE69F49097A39B1012907D002290AD023
:1051600003290BD0002103E0FA2101E04FF4FA718A
:105170000180002070474FF47A71F9E74FF4FA612B
:10518000F6E7934A517A41B1012908D002290FD09C
:1051900003290FD04FF0FF307047022100E00421B7
:1051A0000170D17C11B10178490001700020704775
:1051B0000821F5E71021F3E78549C97A072913D2B9
:1051C000DFE801F01204060A0C0E1000BC2100E01A
:1051D00062210180002070472A21FAE71421F8E7B4
:1051E0000A21F6E70521F4E70021F2E7784991F872
:1051F000242012B14FF0FF307047C9890180002090
:10520000704700210180481E70474FF0FF30704703
:105210006F49097A41B1012908D002290AD003292E
:105220000AD04FF0FF3070476B4900E06B490160D6
:10523000002070476A49FAE76A49F8E7644A517AF8
:1052400041B1012909D0022911D0032912D04FF010
:10525000FF3070474FF4804101E041F69C710180BE
:10526000D17C11B1018849080180002070474FF4BA
:105270008051F4E74FF40061F1E75549097C017072
:10528000002070475249897A01B101210170002044
:10529000704738B505464E484FF0FF34817A41B12A
:1052A000016840686B46097C0078022201F022FC0C
:1052B00008B1204638BDBDF8000040BA2880002063
:1052C00038BD2DE9FE4F884641498146002491F8BA
:1052D00024001E4625464FF0FF3BD0BB0020307017
:1052E000887AB0B3087CA0B3420600D502248206B7
:1052F00000D5A41CC20600D5A41C000700D5A41D1F
:105300008A460968DAF804006B46897A0078022236
:1053100001F0F0FBE8B9BDF8000047BAA74263D33B
:10532000DAF804004188B7EB510F13D9DAF800100E
:1053300000786B46497C012201F0DCFB48B99DF8FE
:105340000000C00606D5FFF760FB6FF00100BDE866
:10535000FE8F0AE0DAF80010DAF804006B46C97A2A
:105360000078224601F0C6FB08B15846EFE7B7FBCC
:10537000F4F00C99401E087000203070A4B39AF825
:10538000101050460A07694613D5BDF800200625BF
:1053900052BAA8F80020BDF8022052BAA8F802209C
:1053A000BDF8042052BAA8F80420327842F008026E
:1053B0003270A5421AD0027C520617D54A191288BB
:1053C00052BAA9F80020327842F0400232700CE064
:1053D0006401002000000C420000034300008342EF
:1053E00033330342333383411EE0AD1CA5420CD05E
:1053F000027C920609D54A19AD1C128852BAA9F846
:105400000220327842F020023270A5420CD09AF885
:105410001000C00608D54819008840BAA9F8040051
:10542000307840F010003070002090E72DE9F8430C
:10543000FA4E0546174696F8240089464FF0FF3885
:1054400088B3B07A78B330686B460222817A70688C
:10545000007801F04FFB30BBBDF8000044BAAC420D
:1054600002D2002038701EE070684188B4EB510F02
:1054700010D9316800786B46497C012201F03AFB73
:1054800088B99DF80000C00604D5FFF7BEFA6FF09A
:1054900001000BE43068EAB24B46C17A70680078CC
:1054A00001F028FB08B140460BE4B4FBF5F0401EC8
:1054B0003870002005E4D94981F8220000207047A7
:1054C0002DE9FE4F05460120D44E8DF800004FF027
:1054D00000088DF8018030680C461746817C7068A2
:1054E0006B460222007801F0A9FA4FF0FF3A00283B
:1054F0007AD1C820FCF71CFD8DF8008030686B461F
:105500000122C17B7068007801F098FA0028EFD181
:1055100030686B46012241797068007801F08EFA9C
:105520000028E5D130686B460122817C70680078E4
:1055300001F084FA0028DBD130686B460122C17D7E
:105540007068007801F07AFA0028D1D130686B4693
:10555000012201797068007801F070FA0028C7D143
:105560004FF00C098DF8009030686B4601220179EC
:105570007068007801F062FA002835D10F20FCF73E
:10558000D7FCB06A6B460122407A8DF80000306883
:1055900081787068007801F051FA002824D1B06A4F
:1055A0006B460122007A8DF80000306841787068FF
:1055B000007801F043FA002873D1B06A807A0FB105
:1055C00040F0E0008DF8000030686B4601228179E0
:1055D0007068007801F032FA002862D12FB1B06A09
:1055E000C07A40F0E00001E04AE018208DF80000A9
:1055F00030686B460122C1797068007801F01EFAAC
:10560000F0BB17B1C820FCF793FC40208DF80000D8
:1056100030686B46012201797068007801F00EFA5B
:1056200070BB78208DF8000030686B46012241790C
:105630007068007801F002FA10BB3220FCF778FCA9
:105640008DF80080306847466B46417970680122CA
:10565000007801F0F3F998B931687068B046897A3A
:1056600000786B46022201F045FA48B9BDF8000007
:10567000AF6040BAB0FBF9F06F60C6B22F6000E0D7
:105680000FE0A76067602760002738E0D8F80010B7
:10569000D8F804006B46C97A00780C2201F02AFA87
:1056A00008B1504653E6BDF80000236840BA02B284
:1056B000BDF802001A4440BA01B2BDF804002260ED
:1056C000626840BA11446160A16800B20844A060F9
:1056D000BDF806002B6840BA02B2BDF808001A44B3
:1056E00040BA01B2BDF80A002A606A6840BA1144A3
:1056F0006960A96800B208447F1CFFB2A860B74285
:10570000C4D328688322C117090441EA1041000468
:10571000002302F00DF83246002302F009F8286059
:1057200068688322C117090441EA1041000400237C
:1057300001F0FEFF3246002301F0FAFF6860A8681E
:105740008322C117090441EA10410004002301F03B
:10575000EFFF3246002301F0EBFFA86020684FF412
:105760000065C117090441EA104100042A460023DC
:1057700001F0DEFF3246002301F0DAFF20606068AE
:105780002A46C117090441EA10410004002301F030
:10579000CFFF3246002301F0CBFF6060A0682A46AD
:1057A000C117090441EA10410004002301F0C0FFC1
:1057B0003246002301F0BCFFA060002802DDA0F506
:1057C000803001E000F58030A0600020BFE538B5F2
:1057D000124C94F8241081421DD00025E8B194F8B1
:1057E0002500E8B10020FEF7BFFF0020FFF7A3F877
:1057F000E08CFFF767FA8DF8005060686B46012275
:105800000078232101F01AF9012084F82400FEF722
:10581000ABFFFFF7FAF8002038BD04E06401002078
:105820004FF0FF30F8E70020FEF79EFF207C8DF858
:10583000000060686B4601220078232101F0FEF829
:1058400084F82450E5E72DE9F047FA4E82468AB005
:1058500096F824000F4620B10020FFF7B8FF01257D
:1058600000E0002507A8FFF774FC06A8FFF789FCF5
:1058700009A8FFF7A1FC08A8FFF7B8FC96F80A9062
:1058800096F810800024002239465046FFF718FE93
:1058900010B1641C022CF6DB022C1AD00024012269
:1058A00003A96846FFF70CFE10B1641C022CF6DB5E
:1058B000022C0ED003A9384600F0BEF9C7B26946E3
:1058C000504600F0F0F910F0FF0F4FF0000402D046
:1058D00002E0002403E001240FB944F00204FF2099
:1058E00030727072F0724FF6FF71F181B0723074E5
:1058F00001203073BDF81C00FFF74FFA9DF8180027
:10590000FFF71AFABDF82400FFF750F9BDF82000A0
:10591000FFF7D8F94846FEF7B5FF4046FFF71CF9F8
:1059200015B10120FFF753FF0AB02046BDE8F0870C
:10593000F8B517000D464FF0FF341FD0BD4EB17AB9
:10594000E1B1010A8DF80010C0B28DF801004119D3
:1059500070684289914211D8316800786B46097E9F
:10596000022201F06BF848B93068EAB23B46417D4B
:105970007068007801F062F8002800D02046F8BD79
:10598000F8B517000D464FF0FF341FD0A94EB17A7D
:10599000E1B1010A8DF80010C0B28DF80100411983
:1059A00070684289914211D8316800786B46097E4F
:1059B000022201F043F848B93068EAB23B46417D23
:1059C0007068007801F096F8002800D02046F8BDF5
:1059D0002DE9FF4FDFF85CA2054685B09AF8250057
:1059E000914688464FF0FF3BC0BBB8F1000F35D061
:1059F00000241FE0281B102800DD102086B208EBD1
:105A000004073A4631462046FFF792FF30BB6A460C
:105A100031462046FFF7B4FF00BB384632466946A0
:105A200001F0C9FE20B16FF0010009B0BDE8F08FB0
:105A3000A01984B2AC42DDD34FEA19208DF81000D2
:105A40008DF81190DAF80000544604AB817EDAF844
:105A500004000222007800F0F1FF08B15846E4E7A4
:105A6000012084F825000898E0840020DDE77149D2
:105A700091F824100170002070474FF0FF307047FC
:105A80004FF0FF3070472DE9F84F6A4C0F4604F194
:105A9000160115004FF0FF3B8A464FF000094FF00A
:105AA000010877D0B0F5FF5F01D9FF2605E0202877
:105AB00001D2012601E0C0F3471607B90127282DBE
:105AC0006AD8607DF0B994F8240028B10020FFF76F
:105AD0007EFE84F8208001E084F820905046FFF795
